{"abi":[{"type":"constructor","inputs":[{"name":"initialAdmin","type":"address","internalType":"address"}],"stateMutability":"nonpayable"},{"type":"function","name":"DEFAULT_ADMIN_ROLE","inputs":[],"outputs":[{"name":"","type":"bytes32","internalType":"bytes32"}],"stateMutability":"view"},{"type":"function","name":"RAFFLE_ROLE","inputs":[],"outputs":[{"name":"","type":"bytes32","internalType":"bytes32"}],"stateMutability":"view"},{"type":"function","name":"claimConsolation","inputs":[{"name":"seasonId","type":"uint256","internalType":"uint256"}],"outputs":[],"stateMutability":"nonpayable"},{"type":"function","name":"claimGrand","inputs":[{"name":"seasonId","type":"uint256","internalType":"uint256"}],"outputs":[],"stateMutability":"nonpayable"},{"type":"function","name":"claimSponsoredERC20","inputs":[{"name":"seasonId","type":"uint256","internalType":"uint256"}],"outputs":[],"stateMutability":"nonpayable"},{"type":"function","name":"claimSponsoredERC721","inputs":[{"name":"seasonId","type":"uint256","internalType":"uint256"}],"outputs":[],"stateMutability":"nonpayable"},{"type":"function","name":"configureSeason","inputs":[{"name":"seasonId","type":"uint256","internalType":"uint256"},{"name":"token","type":"address","internalType":"address"},{"name":"grandWinner","type":"address","internalType":"address"},{"name":"grandAmount","type":"uint256","internalType":"uint256"},{"name":"consolationAmount","type":"uint256","internalType":"uint256"},{"name":"totalParticipants","type":"uint256","internalType":"uint256"}],"outputs":[],"stateMutability":"nonpayable"},{"type":"function","name":"configureTiers","inputs":[{"name":"seasonId","type":"uint256","internalType":"uint256"},{"name":"tiers","type":"tuple[]","internalType":"struct IRafflePrizeDistributor.TierConfig[]","components":[{"name":"winnerCount","type":"uint16","internalType":"uint16"}]}],"outputs":[],"stateMutability":"nonpayable"},{"type":"function","name":"fundSeason","inputs":[{"name":"seasonId","type":"uint256","internalType":"uint256"},{"name":"amount","type":"uint256","internalType":"uint256"}],"outputs":[],"stateMutability":"nonpayable"},{"type":"function","name":"getERC20TotalByToken","inputs":[{"name":"seasonId","type":"uint256","internalType":"uint256"},{"name":"token","type":"address","internalType":"address"}],"outputs":[{"name":"","type":"uint256","internalType":"uint256"}],"stateMutability":"view"},{"type":"function","name":"getRoleAdmin","inputs":[{"name":"role","type":"bytes32","internalType":"bytes32"}],"outputs":[{"name":"","type":"bytes32","internalType":"bytes32"}],"stateMutability":"view"},{"type":"function","name":"getSeason","inputs":[{"name":"seasonId","type":"uint256","internalType":"uint256"}],"outputs":[{"name":"","type":"tuple","internalType":"struct IRafflePrizeDistributor.SeasonPayouts","components":[{"name":"token","type":"address","internalType":"address"},{"name":"grandWinner","type":"address","internalType":"address"},{"name":"grandAmount","type":"uint256","internalType":"uint256"},{"name":"consolationAmount","type":"uint256","internalType":"uint256"},{"name":"totalParticipants","type":"uint256","internalType":"uint256"},{"name":"funded","type":"bool","internalType":"bool"},{"name":"grandClaimed","type":"bool","internalType":"bool"}]}],"stateMutability":"view"},{"type":"function","name":"getSponsoredERC20","inputs":[{"name":"seasonId","type":"uint256","internalType":"uint256"}],"outputs":[{"name":"","type":"tuple[]","internalType":"struct RafflePrizeDistributor.SponsoredERC20[]","components":[{"name":"token","type":"address","internalType":"address"},{"name":"amount","type":"uint256","internalType":"uint256"},{"name":"sponsor","type":"address","internalType":"address"},{"name":"targetTier","type":"uint256","internalType":"uint256"}]}],"stateMutability":"view"},{"type":"function","name":"getSponsoredERC721","inputs":[{"name":"seasonId","type":"uint256","internalType":"uint256"}],"outputs":[{"name":"","type":"tuple[]","internalType":"struct RafflePrizeDistributor.SponsoredERC721[]","components":[{"name":"token","type":"address","internalType":"address"},{"name":"tokenId","type":"uint256","internalType":"uint256"},{"name":"sponsor","type":"address","internalType":"address"},{"name":"targetTier","type":"uint256","internalType":"uint256"}]}],"stateMutability":"view"},{"type":"function","name":"getTierConfigs","inputs":[{"name":"seasonId","type":"uint256","internalType":"uint256"}],"outputs":[{"name":"","type":"tuple[]","internalType":"struct IRafflePrizeDistributor.TierConfig[]","components":[{"name":"winnerCount","type":"uint16","internalType":"uint16"}]}],"stateMutability":"view"},{"type":"function","name":"getTierWinners","inputs":[{"name":"seasonId","type":"uint256","internalType":"uint256"},{"name":"tierIndex","type":"uint256","internalType":"uint256"}],"outputs":[{"name":"","type":"address[]","internalType":"address[]"}],"stateMutability":"view"},{"type":"function","name":"getWinnerTier","inputs":[{"name":"seasonId","type":"uint256","internalType":"uint256"},{"name":"winner","type":"address","internalType":"address"}],"outputs":[{"name":"isTierWinner","type":"bool","internalType":"bool"},{"name":"tierIndex","type":"uint256","internalType":"uint256"}],"stateMutability":"view"},{"type":"function","name":"grantAdmin","inputs":[{"name":"account","type":"address","internalType":"address"}],"outputs":[],"stateMutability":"nonpayable"},{"type":"function","name":"grantRole","inputs":[{"name":"role","type":"bytes32","internalType":"bytes32"},{"name":"account","type":"address","internalType":"address"}],"outputs":[],"stateMutability":"nonpayable"},{"type":"function","name":"hasRole","inputs":[{"name":"role","type":"bytes32","internalType":"bytes32"},{"name":"account","type":"address","internalType":"address"}],"outputs":[{"name":"","type":"bool","internalType":"bool"}],"stateMutability":"view"},{"type":"function","name":"isConsolationClaimed","inputs":[{"name":"seasonId","type":"uint256","internalType":"uint256"},{"name":"account","type":"address","internalType":"address"}],"outputs":[{"name":"","type":"bool","internalType":"bool"}],"stateMutability":"view"},{"type":"function","name":"isSponsoredERC20Claimed","inputs":[{"name":"seasonId","type":"uint256","internalType":"uint256"},{"name":"prizeIndex","type":"uint256","internalType":"uint256"},{"name":"winner","type":"address","internalType":"address"}],"outputs":[{"name":"","type":"bool","internalType":"bool"}],"stateMutability":"view"},{"type":"function","name":"isSponsoredERC721Claimed","inputs":[{"name":"seasonId","type":"uint256","internalType":"uint256"},{"name":"prizeIndex","type":"uint256","internalType":"uint256"}],"outputs":[{"name":"","type":"bool","internalType":"bool"}],"stateMutability":"view"},{"type":"function","name":"lockSponsorships","inputs":[{"name":"seasonId","type":"uint256","internalType":"uint256"}],"outputs":[],"stateMutability":"nonpayable"},{"type":"function","name":"onERC721Received","inputs":[{"name":"","type":"address","internalType":"address"},{"name":"","type":"address","internalType":"address"},{"name":"","type":"uint256","internalType":"uint256"},{"name":"","type":"bytes","internalType":"bytes"}],"outputs":[{"name":"","type":"bytes4","internalType":"bytes4"}],"stateMutability":"nonpayable"},{"type":"function","name":"renounceRole","inputs":[{"name":"role","type":"bytes32","internalType":"bytes32"},{"name":"callerConfirmation","type":"address","internalType":"address"}],"outputs":[],"stateMutability":"nonpayable"},{"type":"function","name":"revokeAdmin","inputs":[{"name":"account","type":"address","internalType":"address"}],"outputs":[],"stateMutability":"nonpayable"},{"type":"function","name":"revokeRole","inputs":[{"name":"role","type":"bytes32","internalType":"bytes32"},{"name":"account","type":"address","internalType":"address"}],"outputs":[],"stateMutability":"nonpayable"},{"type":"function","name":"setTierWinners","inputs":[{"name":"seasonId","type":"uint256","internalType":"uint256"},{"name":"allWinners","type":"address[]","internalType":"address[]"}],"outputs":[],"stateMutability":"nonpayable"},{"type":"function","name":"sponsorERC20","inputs":[{"name":"seasonId","type":"uint256","internalType":"uint256"},{"name":"token","type":"address","internalType":"address"},{"name":"amount","type":"uint256","internalType":"uint256"},{"name":"targetTier","type":"uint256","internalType":"uint256"}],"outputs":[],"stateMutability":"nonpayable"},{"type":"function","name":"sponsorERC721","inputs":[{"name":"seasonId","type":"uint256","internalType":"uint256"},{"name":"token","type":"address","internalType":"address"},{"name":"tokenId","type":"uint256","internalType":"uint256"},{"name":"targetTier","type":"uint256","internalType":"uint256"}],"outputs":[],"stateMutability":"nonpayable"},{"type":"function","name":"supportsInterface","inputs":[{"name":"interfaceId","type":"bytes4","internalType":"bytes4"}],"outputs":[{"name":"","type":"bool","internalType":"bool"}],"stateMutability":"view"},{"type":"event","name":"AdminGranted","inputs":[{"name":"account","type":"address","indexed":true,"internalType":"address"}],"anonymous":false},{"type":"event","name":"AdminRevoked","inputs":[{"name":"account","type":"address","indexed":true,"internalType":"address"}],"anonymous":false},{"type":"event","name":"ConsolationClaimed","inputs":[{"name":"seasonId","type":"uint256","indexed":true,"internalType":"uint256"},{"name":"account","type":"address","indexed":true,"internalType":"address"},{"name":"amount","type":"uint256","indexed":false,"internalType":"uint256"}],"anonymous":false},{"type":"event","name":"ERC20Sponsored","inputs":[{"name":"seasonId","type":"uint256","indexed":true,"internalType":"uint256"},{"name":"sponsor","type":"address","indexed":true,"internalType":"address"},{"name":"token","type":"address","indexed":true,"internalType":"address"},{"name":"amount","type":"uint256","indexed":false,"internalType":"uint256"}],"anonymous":false},{"type":"event","name":"ERC721Sponsored","inputs":[{"name":"seasonId","type":"uint256","indexed":true,"internalType":"uint256"},{"name":"sponsor","type":"address","indexed":true,"internalType":"address"},{"name":"token","type":"address","indexed":true,"internalType":"address"},{"name":"tokenId","type":"uint256","indexed":false,"internalType":"uint256"}],"anonymous":false},{"type":"event","name":"GrandClaimed","inputs":[{"name":"seasonId","type":"uint256","indexed":true,"internalType":"uint256"},{"name":"winner","type":"address","indexed":true,"internalType":"address"},{"name":"amount","type":"uint256","indexed":false,"internalType":"uint256"}],"anonymous":false},{"type":"event","name":"RoleAdminChanged","inputs":[{"name":"role","type":"bytes32","indexed":true,"internalType":"bytes32"},{"name":"previousAdminRole","type":"bytes32","indexed":true,"internalType":"bytes32"},{"name":"newAdminRole","type":"bytes32","indexed":true,"internalType":"bytes32"}],"anonymous":false},{"type":"event","name":"RoleGranted","inputs":[{"name":"role","type":"bytes32","indexed":true,"internalType":"bytes32"},{"name":"account","type":"address","indexed":true,"internalType":"address"},{"name":"sender","type":"address","indexed":true,"internalType":"address"}],"anonymous":false},{"type":"event","name":"RoleRevoked","inputs":[{"name":"role","type":"bytes32","indexed":true,"internalType":"bytes32"},{"name":"account","type":"address","indexed":true,"internalType":"address"},{"name":"sender","type":"address","indexed":true,"internalType":"address"}],"anonymous":false},{"type":"event","name":"SeasonConfigured","inputs":[{"name":"seasonId","type":"uint256","indexed":true,"internalType":"uint256"},{"name":"token","type":"address","indexed":true,"internalType":"address"},{"name":"grandWinner","type":"address","indexed":true,"internalType":"address"},{"name":"grandAmount","type":"uint256","indexed":false,"internalType":"uint256"},{"name":"consolationAmount","type":"uint256","indexed":false,"internalType":"uint256"},{"name":"totalParticipants","type":"uint256","indexed":false,"internalType":"uint256"}],"anonymous":false},{"type":"event","name":"SeasonFunded","inputs":[{"name":"seasonId","type":"uint256","indexed":true,"internalType":"uint256"},{"name":"amount","type":"uint256","indexed":false,"internalType":"uint256"}],"anonymous":false},{"type":"event","name":"SponsoredERC20Claimed","inputs":[{"name":"seasonId","type":"uint256","indexed":true,"internalType":"uint256"},{"name":"winner","type":"address","indexed":true,"internalType":"address"},{"name":"token","type":"address","indexed":true,"internalType":"address"},{"name":"amount","type":"uint256","indexed":false,"internalType":"uint256"}],"anonymous":false},{"type":"event","name":"SponsoredERC721Claimed","inputs":[{"name":"seasonId","type":"uint256","indexed":true,"internalType":"uint256"},{"name":"winner","type":"address","indexed":true,"internalType":"address"},{"name":"token","type":"address","indexed":true,"internalType":"address"},{"name":"tokenId","type":"uint256","indexed":false,"internalType":"uint256"}],"anonymous":false},{"type":"event","name":"SponsorshipsLocked","inputs":[{"name":"seasonId","type":"uint256","indexed":true,"internalType":"uint256"}],"anonymous":false},{"type":"event","name":"TierWinnersSet","inputs":[{"name":"seasonId","type":"uint256","indexed":true,"internalType":"uint256"},{"name":"tierCount","type":"uint256","indexed":false,"internalType":"uint256"}],"anonymous":false},{"type":"event","name":"TiersConfigured","inputs":[{"name":"seasonId","type":"uint256","indexed":true,"internalType":"uint256"},{"name":"tierCount","type":"uint256","indexed":false,"internalType":"uint256"},{"name":"totalWinners","type":"uint256","indexed":false,"internalType":"uint256"}],"anonymous":false},{"type":"error","name":"AccessControlBadConfirmation","inputs":[]},{"type":"error","name":"AccessControlUnauthorizedAccount","inputs":[{"name":"account","type":"address","internalType":"address"},{"name":"neededRole","type":"bytes32","internalType":"bytes32"}]},{"type":"error","name":"InvalidTier","inputs":[{"name":"tier","type":"uint256","internalType":"uint256"},{"name":"maxTier","type":"uint256","internalType":"uint256"}]},{"type":"error","name":"NoTiersConfigured","inputs":[{"name":"seasonId","type":"uint256","internalType":"uint256"}]},{"type":"error","name":"NoWinnersInTier","inputs":[{"name":"seasonId","type":"uint256","internalType":"uint256"},{"name":"tierIndex","type":"uint256","internalType":"uint256"}]},{"type":"error","name":"NotATierWinner","inputs":[{"name":"seasonId","type":"uint256","internalType":"uint256"},{"name":"caller","type":"address","internalType":"address"}]},{"type":"error","name":"ReentrancyGuardReentrantCall","inputs":[]},{"type":"error","name":"SafeERC20FailedOperation","inputs":[{"name":"token","type":"address","internalType":"address"}]},{"type":"error","name":"ZeroWinnersInTier","inputs":[{"name":"tierIndex","type":"uint256","internalType":"uint256"}]}],"bytecode":{"object":"0x60803461007b57601f6129e338819003918201601f19168301916001600160401b0383118484101761007f5780849260209460405283398101031261007b57516001600160a01b03811680820361007b5760018055610072575061006233610093565b506040516128a6908161011d8239f35b61006290610093565b5f80fd5b634e487b7160e01b5f52604160045260245ffd5b6001600160a01b0381165f9081525f5160206129c35f395f51905f52602052604090205460ff16610117576001600160a01b03165f8181525f5160206129c35f395f51905f5260205260408120805460ff191660011790553391907f2f8788117e7eff1d82e926ec794901d17c78024a50270940304540a733656f0d8180a4600190565b505f9056fe6080806040526004361015610012575f80fd5b5f905f3560e01c90816301ffc9a71461196d57508063084a8609146118b05780630aab602d1461185b5780630e8bb18a14611821578063150b7a0214611783578063248a9ca3146117515780632d345670146116f75780632f2ff15d146116ba57806335702983146114a157806335bb3e161461144757806336568abe146114015780634db64ee7146113dd57806362e2abf414611306578063637c2d80146112195780637a34be8a146110225780637e040f0114610f3557806381b2aa6614610d9857806391d1485414610d505780639eab76ff14610d1c5780639f05dede14610ae15780639f53c92014610a98578063a08b26ac146108be578063a217fddf146108a4578063a43d8654146107a4578063a97553c7146105dc578063b2be4720146105b2578063b5dbc2f914610502578063d1396fea1461037b578063d547741f14610334578063d837d91c14610231578063e09dcebb146101ec5763ed93fba31461017e575f80fd5b346101e95760403660031901126101e957604090600435908261019f611a02565b91838152600a60205281812060018060a01b0384165f5260205260ff825f2054169381526009602052209060018060a01b03165f52602052815f2054825191151582526020820152f35b80fd5b50346101e95760403660031901126101e9576040610208611a02565b9160043581526006602052209060018060a01b03165f52602052602060405f2054604051908152f35b50346101e95760203660031901126101e95760043561024e6127cb565b80825260026020526040822060058101805461026c60ff8216611b04565b60ff8160081c166102ef576101009061029260018060a01b036001860154163314611b9c565b61ff00191617905580546002909101805490916102ba919033906001600160a01b03166127eb565b54906040519182527faec7c76f411b9b5a8d9d189ac175918597fb1f2d39c0697816416de93a3bc52f60203393a36001805580f35b60405162461bcd60e51b815260206004820152601a60248201527f4469737472696275746f723a206772616e6420636c61696d65640000000000006044820152606490fd5b50346101e95760403660031901126101e957610377600435610354611a02565b9061037261036d825f525f602052600160405f20015490565b612580565b61263f565b5080f35b50346104e15761038a36611ac9565b9290916103956127cb565b6103a082151561209a565b6001600160a01b0316926103b58415156120a1565b815f5260026020526103d460ff600560405f20015460101c16156120ed565b815f52600760205260405f2054806104e5575b50833b156104e157604051632142170760e11b8152336004820152306024820152604481018490525f8160648183895af180156104d6576104c1575b508185526005602052604085206040519161043d83611a34565b8583528460208401523360408401526060830152805490600160401b8210156104ad578161047491600161047a9594018155611c66565b90612138565b6040519182527f6cc4995cad74cf74cac8d3fc851a58ec7ba033141088d31666a0e712d7c02abb60203393a46001805580f35b634e487b7160e01b87526041600452602487fd5b6104ce9195505f90611a50565b5f935f610423565b6040513d5f823e3d90fd5b5f80fd5b8082106103e7579063663c69cb60e11b5f5260045260245260445ffd5b346104e15760203660031901126104e15760043561051e612511565b805f526002602052600560405f2001805460ff8160101c1661056d5762ff00001916620100001790557f5ba0a7d861502507c1e529fa980ce7ee367491f556d29a4ad979099af312a3d65f80a2005b60405162461bcd60e51b815260206004820152601b60248201527f4469737472696275746f723a20616c7265616479206c6f636b656400000000006044820152606490fd5b346104e15760203660031901126104e1576105cb6127cb565b6105d6600435612186565b60018055005b346104e1576105ea36611ac9565b9290916105f56127cb565b61060082151561209a565b6001600160a01b0316926106158415156120a1565b821561075f57815f52600260205261063a60ff600560405f20015460101c16156120ed565b815f52600760205260405f205480610742575b506040516323b872dd60e01b60208201523360248201523060448201526064808201859052815261068990610683608482611a50565b8561282d565b815f52600460205260405f2090604051906106a382611a34565b8582528460208301523360408301526060820152815491600160401b83101561072e57826104749160016106d995018155611c66565b805f52600660205260405f20835f5260205260405f206106fa838254611af7565b90556040519182527fe973739b2ccd3e65e48b2803a2c84931987b53f8e36fdcfcd3a028248dd1c37360203393a460018055005b634e487b7160e01b5f52604160045260245ffd5b80821061064d579063663c69cb60e11b5f5260045260245260445ffd5b60405162461bcd60e51b815260206004820152601860248201527f4469737472696275746f723a207a65726f20616d6f756e7400000000000000006044820152606490fd5b346104e15760203660031901126104e1575f60c06040516107c481611a18565b8281528260208201528260408201528260608201528260808201528260a082015201526004355f52600260205260e060405f2060018060a01b038154169060018060a01b03600182015416600282015491600381015460056004830154920154936040519361083285611a18565b8685526020850190815260408501918252606085019283526080850193845260ff60c060a087019682891615158852019660081c161515865260405196875260018060a01b03905116602087015251604086015251606085015251608084015251151560a083015251151560c0820152f35b346104e1575f3660031901126104e15760206040515f8152f35b346104e1576108cc36611a72565b916108d5612511565b805f52600760205260405f2091825415610a855791925f9290835b8554851015610a5657835f52600860205260405f20855f5260205260405f208054905f815581610a38575b505061ffff61092a8688611c7f565b505416955f5b87811080610a26575b15610a0e5761095261094b8285611af7565b858761205d565b356001600160a01b038116908190036104e157865f52600860205260405f20885f5260205260405f208054600160401b81101561072e5761099891600182018155611c7f565b81549060031b9083821b9160018060a01b03901b1916179055865f52600960205260405f20815f526020528760405f2055865f52600a60205260405f20905f5260205260405f20600160ff198254161790555f1981146109fa57600101610930565b634e487b7160e01b5f52601160045260245ffd5b509495610a1d90600192611af7565b950193946108f0565b5083610a328285611af7565b10610939565b5f5260205f20908101905b8181101561091b575f8155600101610a43565b837f4e9a733b7fc177559634d12c8caea8b2e58e08183e019e222facaba14d0b26f460208854604051908152a2005b50630602177d60e51b5f5260045260245ffd5b346104e15760403660031901126104e157610ab1611a02565b6004355f52600360205260405f209060018060a01b03165f52602052602060ff60405f2054166040519015158152f35b346104e15760203660031901126104e157600435610afd6127cb565b805f52600260205260405f2090610b1a60ff600584015416611b04565b60018201546001600160a01b03163314610cc2575f81815260036020908152604080832033845290915290205460ff16610c7d5760048201546001811115610c2d575f1981019081116109fa57610b7590600384015461207c565b918215610be8575f828152600360209081526040808320338085529252909120805460ff191660011790559054610bb69184916001600160a01b03166127eb565b6040519182527f0b9e1a4dac9f8b3fb1f79c5ecd6c4b4310a780e8c7f7933bfef848257f984ab560203393a360018055005b60405162461bcd60e51b815260206004820152601860248201527f4469737472696275746f723a20616d6f756e74207a65726f00000000000000006044820152606490fd5b60405162461bcd60e51b815260206004820152602260248201527f4469737472696275746f723a206e6f206f74686572207061727469636970616e604482015261747360f01b6064820152608490fd5b60405162461bcd60e51b815260206004820152601c60248201527f4469737472696275746f723a20616c726561647920636c61696d6564000000006044820152606490fd5b60405162461bcd60e51b815260206004820152602c60248201527f4469737472696275746f723a2077696e6e65722063616e6e6f7420636c61696d60448201526b1031b7b739b7b630ba34b7b760a11b6064820152608490fd5b346104e157610d2a366119c0565b905f52600c60205260405f20905f52602052602060ff60405f2054166040519015158152f35b346104e15760403660031901126104e157610d69611a02565b6004355f525f60205260405f209060018060a01b03165f52602052602060ff60405f2054166040519015158152f35b346104e157610da636611a72565b610db1929192612511565b8115610ef0578015610a8557815f52600760205260405f208054905f815581610ed2575b50505f925f5b828110610e1557837fd3163272f0bb4252b13eb4d8fc2ca259c7f11d09694ac0a304d1b00688554f2f6040858882519182526020820152a2005b909361ffff610e2d610e2884868961205d565b61206d565b1615610ebf57835f52600760205260405f20610e4a83858861205d565b908054600160401b81101561072e57610e6891600182018155611c7f565b929092610eac5760019261ffff610e81610ea49461206d565b1661ffff1982541617905561ffff610e9d610e2886888b61205d565b1690611af7565b949101610ddb565b634e487b7160e01b5f525f60045260245ffd5b506310e43bef60e31b5f5260045260245ffd5b5f5260205f20908101905b81811015610dd5575f8155600101610edd565b60405162461bcd60e51b815260206004820152601b60248201527f4469737472696275746f723a20696e76616c696420736561736f6e00000000006044820152606490fd5b346104e15760203660031901126104e1576004355f52600560205260405f20805490610f6082611be8565b91610f6e6040519384611a50565b8083526020830180925f5260205f205f915b838310611004578486604051918291602083019060208452518091526040830191905f5b818110610fb2575050500390f35b919350916020608082610ff660019488516060809160018060a01b0381511684526020810151602085015260018060a01b0360408201511660408501520151910152565b019401910191849392610fa4565b6004602060019261101485611c00565b815201920192019190610f80565b346104e15760c03660031901126104e15760043561103e611a02565b906110476119d6565b906064359260843560a4359161105b612511565b6001600160a01b03169384156111d4576001600160a01b031694851561118f57801561115357821561110e577feb5d91942ca81e2b336cd8bacc9097a1f571098daa2758750248bd1ff2f0aa9692606092855f52600260205281600460405f20896bffffffffffffffffffffffff60a01b825416178155600181018b6bffffffffffffffffffffffff60a01b825416179055856002820155836003820155015560405192835260208301526040820152a4005b60405162461bcd60e51b815260206004820152601b60248201527f4469737472696275746f723a207061727469636970616e7473203000000000006044820152606490fd5b60405162461bcd60e51b815260206004820152601460248201527304469737472696275746f723a206772616e6420360641b6044820152606490fd5b60405162461bcd60e51b815260206004820152601860248201527f4469737472696275746f723a2077696e6e6572207a65726f00000000000000006044820152606490fd5b60405162461bcd60e51b815260206004820152601760248201527f4469737472696275746f723a20746f6b656e207a65726f0000000000000000006044820152606490fd5b346104e15760203660031901126104e1576004355f52600460205260405f2080549061124482611be8565b916112526040519384611a50565b8083526020830180925f5260205f205f915b8383106112e8578486604051918291602083019060208452518091526040830191905f5b818110611296575050500390f35b9193509160206080826112da60019488516060809160018060a01b0381511684526020810151602085015260018060a01b0360408201511660408501520151910152565b019401910191849392611288565b600460206001926112f885611c00565b815201920192019190611264565b346104e15760203660031901126104e1576004355f52600760205260405f2080549061133182611be8565b9161133f6040519384611a50565b808352602083019081925f5260205f20915f905b8282106113a3578486604051918291602083019060208452518091526040830191905f5b818110611385575050500390f35b82515161ffff16845285945060209384019390920191600101611377565b6040516020810181811067ffffffffffffffff82111761072e57604052845461ffff16815281526001938401939190910190602001611353565b346104e15760203660031901126104e1576113f66127cb565b6105d6600435611c94565b346104e15760403660031901126104e15761141a611a02565b336001600160a01b03821603611438576114369060043561263f565b005b63334bd91960e11b5f5260045ffd5b346104e15760203660031901126104e1576114606119ec565b6114686124d5565b611471816126c5565b506001600160a01b03167f1c4e23de8d72c94b22992bd4d7b6786b215ba876af214ff63e6a0ca38fc97af45f80a2005b346104e1576114af366119c0565b6114b7612511565b815f52600260205260405f20600581019182549160ff83166116755780546001600160a01b03169081156116305780600360026114f993015491015490611af7565b908183036115eb576020602491604051928380926370a0823160e01b82523060048301525afa9081156104d6575f916115b9575b501061156a577f9677041c49215ca8a68f240e6c2077d6193bb2452346b2c44774f56f3786262992600160209360ff1916179055604051908152a2005b60405162461bcd60e51b815260206004820152602160248201527f4469737472696275746f723a20696e73756666696369656e742062616c616e636044820152606560f81b6064820152608490fd5b90506020813d6020116115e3575b816115d460209383611a50565b810103126104e157518661152d565b3d91506115c7565b60405162461bcd60e51b815260206004820152601c60248201527f4469737472696275746f723a20616d6f756e74206d69736d61746368000000006044820152606490fd5b60405162461bcd60e51b815260206004820152601b60248201527f4469737472696275746f723a206e6f7420636f6e6669677572656400000000006044820152606490fd5b60405162461bcd60e51b815260206004820152601b60248201527f4469737472696275746f723a20616c72656164792066756e64656400000000006044820152606490fd5b346104e15760403660031901126104e1576114366004356116d9611a02565b906116f261036d825f525f602052600160405f20015490565b612749565b346104e15760203660031901126104e1576117106119ec565b6117186124d5565b611721816125b8565b506001600160a01b03167f631ff1c4e1a02c54b480a34b810e03bcee61fe38efcb243930a7f820914923e25f80a2005b346104e15760203660031901126104e157602061177b6004355f525f602052600160405f20015490565b604051908152f35b346104e15760803660031901126104e15761179c6119ec565b506117a5611a02565b5060643567ffffffffffffffff81116104e157366023820112156104e15780600401359067ffffffffffffffff821161072e57604051916117f0601f8201601f191660200184611a50565b80835236602482840101116104e1575f928160246020940184830137010152604051630a85bd0160e11b8152602090f35b346104e1575f3660031901126104e15760206040517fd404bdeb4016171d635a886ea9b5afdd390eb2c028a3d4a11ad0c6f85728a1538152f35b346104e15760603660031901126104e1576118746119d6565b6004355f52600b60205260405f206024355f5260205260405f209060018060a01b03165f52602052602060ff60405f2054166040519015158152f35b346104e1576118be366119c0565b905f52600860205260405f20905f5260205260405f20604051806020835491828152019081935f5260205f20905f5b81811061194e5750505081611903910382611a50565b604051918291602083019060208452518091526040830191905f5b81811061192c575050500390f35b82516001600160a01b031684528594506020938401939092019160010161191e565b82546001600160a01b03168452602090930192600192830192016118ed565b346104e15760203660031901126104e1576004359063ffffffff60e01b82168092036104e157602091637965db0b60e01b81149081156119af575b5015158152f35b6301ffc9a760e01b149050836119a8565b60409060031901126104e1576004359060243590565b604435906001600160a01b03821682036104e157565b600435906001600160a01b03821682036104e157565b602435906001600160a01b03821682036104e157565b60e0810190811067ffffffffffffffff82111761072e57604052565b6080810190811067ffffffffffffffff82111761072e57604052565b90601f8019910116810190811067ffffffffffffffff82111761072e57604052565b60406003198201126104e1576004359160243567ffffffffffffffff81116104e15760040182601f820112156104e15780359267ffffffffffffffff84116104e1576020808301928560051b0101116104e1579190565b60809060031901126104e157600435906024356001600160a01b03811681036104e157906044359060643590565b919082018092116109fa57565b15611b0b57565b60405162461bcd60e51b815260206004820152601760248201527f4469737472696275746f723a206e6f742066756e6465640000000000000000006044820152606490fd5b15611b5757565b60405162461bcd60e51b815260206004820152601760248201527f4469737472696275746f723a206e6f74206c6f636b65640000000000000000006044820152606490fd5b15611ba357565b60405162461bcd60e51b815260206004820152601760248201527f4469737472696275746f723a206e6f742077696e6e65720000000000000000006044820152606490fd5b67ffffffffffffffff811161072e5760051b60200190565b90604051611c0d81611a34565b82546001600160a01b0390811682526001840154602083015260028401541660408201526003909201546060830152565b8051821015611c525760209160051b010190565b634e487b7160e01b5f52603260045260245ffd5b8054821015611c52575f5260205f209060021b01905f90565b8054821015611c52575f5260205f2001905f90565b90815f52600260205260405f20611cbf60ff6005830154611cb6828216611b04565b60101c16611b50565b825f52600760205260405f205415611ea157505f828152600a6020908152604080832033845290915290205460ff1615611e8a575f82815260096020908152604080832033845282528083205485845260059092528220915b8254811015611e8357816003611d2e8386611c66565b50015403611e7b57845f52600c60205260405f20815f5260205260ff60405f205416611e7b57845f52600860205260405f20825f5260205260405f20805415611c52575f90815260209020546001600160a01b03163303611e7b57845f52600c60205260405f20815f5260205260405f20600160ff19825416179055611db48184611c66565b50546001600160a01b0316906001611dcc8286611c66565b50015491803b156104e157604051632142170760e11b815230600482015233602482015260448101939093525f908390606490829084905af19182156104d657600192611e6b575b50611e1f8185611c66565b50828060a01b0390541682611e348387611c66565b500154604051908152877f71f6b88008b5d36ea98db2f7648e9ccf3aed437e9289c1cac3d322eebccae0a860203393a45b01611d18565b5f611e7591611a50565b5f611e14565b600190611e65565b5050509050565b506358112c1b60e11b5f526004523360245260445ffd5b60010154611eb9906001600160a01b03163314611b9c565b815f52600560205260405f208054611ed081611be8565b91611ede6040519384611a50565b81835260208301905f5260205f205f915b83831061203f57505050505f5b8151811015611fd5576001600160a01b03611f178284611c3e565b515116906020611f278285611c3e565b51015191803b156104e157604051632142170760e11b815230600482015233602482015260448101939093525f908390606490829084905af19182156104d657600192611fc5575b50818060a01b03611f808285611c3e565b5151166020611f8f8386611c3e565b510151604051908152867f71f6b88008b5d36ea98db2f7648e9ccf3aed437e9289c1cac3d322eebccae0a860203393a401611efc565b5f611fcf91611a50565b5f611f6f565b5050905f52600560205260405f208054905f815581611ff2575050565b6001600160fe1b03821682036109fa575f5260205f209060021b8101905b81811061201b575050565b8061203960049260035f918281558260018201558260028201550155565b01612010565b6004602060019261204f85611c00565b815201920192019190611eef565b9190811015611c525760051b0190565b3561ffff811681036104e15790565b8115612086570490565b634e487b7160e01b5f52601260045260245ffd5b15610ef057565b156120a857565b60405162461bcd60e51b815260206004820152601960248201527f4469737472696275746f723a207a65726f2061646472657373000000000000006044820152606490fd5b156120f457565b606460405162461bcd60e51b815260206004820152602060248201527f4469737472696275746f723a2073706f6e736f727368697073206c6f636b65646044820152fd5b9190610eac57805182546001600160a01b039182166001600160a01b031991821617845560208301516001850155604083015160028501805491909316911617905560600151600390910155565b805f52600260205260405f206121a760ff6005830154611cb6828216611b04565b815f52600760205260405f20541561236357505f818152600a6020908152604080832033845290915290205460ff161561234d57805f52600960205260405f2060018060a01b0333165f5260205260405f205490805f52600860205260405f20825f5260205260405f2054928315612337575f828152600460205260408120919333915b835481101561232e578082600361224460019488611c66565b5001540361232957855f52600b60205260405f20815f5260205260405f20845f5260205260ff60405f2054166123295761228b88836122838489611c66565b50015461207c565b801561232357865f52600b60205260405f20825f5260205260405f20855f5260205260405f208360ff198254161790556122da816122c98489611c66565b503390868060a01b039054166127eb565b6122e48287611c66565b50838060a01b0390541690604051908152877fe1019d54c076b260f98cf5fa0391d073b2a0828be7a3c5bb3966fe194e78758b60203393a45b0161222b565b5061231d565b61231d565b50505050509050565b506313bfa2d160e11b5f5260045260245260445ffd5b6358112c1b60e11b5f526004523360245260445ffd5b6001015461237b906001600160a01b03163314611b9c565b805f52600460205260405f20805461239281611be8565b916123a06040519384611a50565b81835260208301905f5260205f205f915b8383106124b757505050505f5b815181101561244e576001906123f96001600160a01b036123df8386611c3e565b51511660206123ee8487611c3e565b5101519033906127eb565b818060a01b036124098285611c3e565b51511660206124188386611c3e565b510151604051908152857fe1019d54c076b260f98cf5fa0391d073b2a0828be7a3c5bb3966fe194e78758b60203393a4016123be565b50505f52600460205260405f208054905f81558161246a575050565b6001600160fe1b03821682036109fa575f5260205f209060021b8101905b818110612493575050565b806124b160049260035f918281558260018201558260028201550155565b01612488565b600460206001926124c785611c00565b8152019201920191906123b1565b335f9081525f5160206128865f395f51905f52602052604090205460ff16156124fa57565b63e2517d3f60e01b5f52336004525f60245260445ffd5b335f9081527f19941a73b854fb10f52052a5f1540890f386634eb0df75ef46885612eac59da1602052604090205460ff161561254957565b63e2517d3f60e01b5f52336004527fd404bdeb4016171d635a886ea9b5afdd390eb2c028a3d4a11ad0c6f85728a15360245260445ffd5b5f8181526020818152604080832033845290915290205460ff16156125a25750565b63e2517d3f60e01b5f523360045260245260445ffd5b6001600160a01b0381165f9081525f5160206128865f395f51905f52602052604090205460ff161561263a576001600160a01b03165f8181525f5160206128865f395f51905f5260205260408120805460ff191690553391907ff6391f5c32d9c69d2a47ea670b442974b53935d1edc7fd64eb21e047a839171b8180a4600190565b505f90565b5f818152602081815260408083206001600160a01b038616845290915290205460ff16156126bf575f818152602081815260408083206001600160a01b0395909516808452949091528120805460ff19169055339291907ff6391f5c32d9c69d2a47ea670b442974b53935d1edc7fd64eb21e047a839171b9080a4600190565b50505f90565b6001600160a01b0381165f9081525f5160206128865f395f51905f52602052604090205460ff1661263a576001600160a01b03165f8181525f5160206128865f395f51905f5260205260408120805460ff191660011790553391907f2f8788117e7eff1d82e926ec794901d17c78024a50270940304540a733656f0d8180a4600190565b5f818152602081815260408083206001600160a01b038616845290915290205460ff166126bf575f818152602081815260408083206001600160a01b0395909516808452949091528120805460ff19166001179055339291907f2f8788117e7eff1d82e926ec794901d17c78024a50270940304540a733656f0d9080a4600190565b6002600154146127dc576002600155565b633ee5aeb560e01b5f5260045ffd5b60405163a9059cbb60e01b60208201526001600160a01b03909216602483015260448083019390935291815261282b91612826606483611a50565b61282d565b565b905f602091828151910182855af1156104d6575f513d61287c57506001600160a01b0381163b155b61285c5750565b635274afe760e01b5f9081526001600160a01b0391909116600452602490fd5b6001141561285556fead3228b676f7d3cd4284a5443f17f1962b36e491b30a40b2405849e597ba5fb5ad3228b676f7d3cd4284a5443f17f1962b36e491b30a40b2405849e597ba5fb5","linkReferences":{}},"methodIdentifiers":{"DEFAULT_ADMIN_ROLE()":"a217fddf","RAFFLE_ROLE()":"0e8bb18a","claimConsolation(uint256)":"9f05dede","claimGrand(uint256)":"d837d91c","claimSponsoredERC20(uint256)":"b2be4720","claimSponsoredERC721(uint256)":"4db64ee7","configureSeason(uint256,address,address,uint256,uint256,uint256)":"7a34be8a","configureTiers(uint256,(uint16)[])":"81b2aa66","fundSeason(uint256,uint256)":"35702983","getERC20TotalByToken(uint256,address)":"e09dcebb","getRoleAdmin(bytes32)":"248a9ca3","getSeason(uint256)":"a43d8654","getSponsoredERC20(uint256)":"637c2d80","getSponsoredERC721(uint256)":"7e040f01","getTierConfigs(uint256)":"62e2abf4","getTierWinners(uint256,uint256)":"084a8609","getWinnerTier(uint256,address)":"ed93fba3","grantAdmin(address)":"35bb3e16","grantRole(bytes32,address)":"2f2ff15d","hasRole(bytes32,address)":"91d14854","isConsolationClaimed(uint256,address)":"9f53c920","isSponsoredERC20Claimed(uint256,uint256,address)":"0aab602d","isSponsoredERC721Claimed(uint256,uint256)":"9eab76ff","lockSponsorships(uint256)":"b5dbc2f9","onERC721Received(address,address,uint256,bytes)":"150b7a02","renounceRole(bytes32,address)":"36568abe","revokeAdmin(address)":"2d345670","revokeRole(bytes32,address)":"d547741f","setTierWinners(uint256,address[])":"a08b26ac","sponsorERC20(uint256,address,uint256,uint256)":"a97553c7","sponsorERC721(uint256,address,uint256,uint256)":"d1396fea","supportsInterface(bytes4)":"01ffc9a7"},"id":87}