{"abi":[{"type":"constructor","inputs":[{"name":"_sofToken","type":"address","internalType":"address"},{"name":"_vrfCoordinator","type":"address","internalType":"address"},{"name":"_vrfSubscriptionId","type":"uint256","internalType":"uint256"},{"name":"_vrfKeyHash","type":"bytes32","internalType":"bytes32"}],"stateMutability":"nonpayable"},{"type":"function","name":"BONDING_CURVE_ROLE","inputs":[],"outputs":[{"name":"","type":"bytes32","internalType":"bytes32"}],"stateMutability":"view"},{"type":"function","name":"DEFAULT_ADMIN_ROLE","inputs":[],"outputs":[{"name":"","type":"bytes32","internalType":"bytes32"}],"stateMutability":"view"},{"type":"function","name":"EMERGENCY_ROLE","inputs":[],"outputs":[{"name":"","type":"bytes32","internalType":"bytes32"}],"stateMutability":"view"},{"type":"function","name":"MAX_WINNER_COUNT","inputs":[],"outputs":[{"name":"","type":"uint16","internalType":"uint16"}],"stateMutability":"view"},{"type":"function","name":"SEASON_CREATOR_ROLE","inputs":[],"outputs":[{"name":"","type":"bytes32","internalType":"bytes32"}],"stateMutability":"view"},{"type":"function","name":"VRF_REQUEST_CONFIRMATIONS","inputs":[],"outputs":[{"name":"","type":"uint16","internalType":"uint16"}],"stateMutability":"view"},{"type":"function","name":"VRF_TIMEOUT","inputs":[],"outputs":[{"name":"","type":"uint256","internalType":"uint256"}],"stateMutability":"view"},{"type":"function","name":"_executeFinalizationExternal","inputs":[{"name":"seasonId","type":"uint256","internalType":"uint256"}],"outputs":[],"stateMutability":"nonpayable"},{"type":"function","name":"acceptOwnership","inputs":[],"outputs":[],"stateMutability":"nonpayable"},{"type":"function","name":"canCreateSeason","inputs":[{"name":"account","type":"address","internalType":"address"}],"outputs":[{"name":"","type":"bool","internalType":"bool"}],"stateMutability":"view"},{"type":"function","name":"cancelStuckSeason","inputs":[{"name":"seasonId","type":"uint256","internalType":"uint256"}],"outputs":[],"stateMutability":"nonpayable"},{"type":"function","name":"completeSeasonManually","inputs":[{"name":"seasonId","type":"uint256","internalType":"uint256"}],"outputs":[],"stateMutability":"nonpayable"},{"type":"function","name":"createSeason","inputs":[{"name":"config","type":"tuple","internalType":"struct RaffleTypes.SeasonConfig","components":[{"name":"name","type":"string","internalType":"string"},{"name":"startTime","type":"uint256","internalType":"uint256"},{"name":"endTime","type":"uint256","internalType":"uint256"},{"name":"winnerCount","type":"uint16","internalType":"uint16"},{"name":"grandPrizeBps","type":"uint16","internalType":"uint16"},{"name":"treasuryAddress","type":"address","internalType":"address"},{"name":"raffleToken","type":"address","internalType":"address"},{"name":"bondingCurve","type":"address","internalType":"address"},{"name":"sponsor","type":"address","internalType":"address"},{"name":"isActive","type":"bool","internalType":"bool"},{"name":"isCompleted","type":"bool","internalType":"bool"},{"name":"gated","type":"bool","internalType":"bool"}]},{"name":"bondSteps","type":"tuple[]","internalType":"struct RaffleTypes.BondStep[]","components":[{"name":"rangeTo","type":"uint128","internalType":"uint128"},{"name":"price","type":"uint128","internalType":"uint128"}]},{"name":"buyFeeBps","type":"uint16","internalType":"uint16"},{"name":"sellFeeBps","type":"uint16","internalType":"uint16"}],"outputs":[{"name":"seasonId","type":"uint256","internalType":"uint256"}],"stateMutability":"nonpayable"},{"type":"function","name":"createSeasonWithTiers","inputs":[{"name":"config","type":"tuple","internalType":"struct RaffleTypes.SeasonConfig","components":[{"name":"name","type":"string","internalType":"string"},{"name":"startTime","type":"uint256","internalType":"uint256"},{"name":"endTime","type":"uint256","internalType":"uint256"},{"name":"winnerCount","type":"uint16","internalType":"uint16"},{"name":"grandPrizeBps","type":"uint16","internalType":"uint16"},{"name":"treasuryAddress","type":"address","internalType":"address"},{"name":"raffleToken","type":"address","internalType":"address"},{"name":"bondingCurve","type":"address","internalType":"address"},{"name":"sponsor","type":"address","internalType":"address"},{"name":"isActive","type":"bool","internalType":"bool"},{"name":"isCompleted","type":"bool","internalType":"bool"},{"name":"gated","type":"bool","internalType":"bool"}]},{"name":"bondSteps","type":"tuple[]","internalType":"struct RaffleTypes.BondStep[]","components":[{"name":"rangeTo","type":"uint128","internalType":"uint128"},{"name":"price","type":"uint128","internalType":"uint128"}]},{"name":"buyFeeBps","type":"uint16","internalType":"uint16"},{"name":"sellFeeBps","type":"uint16","internalType":"uint16"},{"name":"tierConfigs","type":"tuple[]","internalType":"struct IRafflePrizeDistributor.TierConfig[]","components":[{"name":"winnerCount","type":"uint16","internalType":"uint16"}]}],"outputs":[{"name":"seasonId","type":"uint256","internalType":"uint256"}],"stateMutability":"nonpayable"},{"type":"function","name":"currentSeasonId","inputs":[],"outputs":[{"name":"","type":"uint256","internalType":"uint256"}],"stateMutability":"view"},{"type":"function","name":"defaultGrandPrizeBps","inputs":[],"outputs":[{"name":"","type":"uint16","internalType":"uint16"}],"stateMutability":"view"},{"type":"function","name":"finalizeSeason","inputs":[{"name":"seasonId","type":"uint256","internalType":"uint256"}],"outputs":[],"stateMutability":"nonpayable"},{"type":"function","name":"fundPrizeDistributor","inputs":[{"name":"seasonId","type":"uint256","internalType":"uint256"}],"outputs":[],"stateMutability":"nonpayable"},{"type":"function","name":"gatingContract","inputs":[],"outputs":[{"name":"","type":"address","internalType":"address"}],"stateMutability":"view"},{"type":"function","name":"getCoordinatorAddress","inputs":[],"outputs":[{"name":"","type":"address","internalType":"address"}],"stateMutability":"view"},{"type":"function","name":"getCurrentSeason","inputs":[],"outputs":[{"name":"","type":"uint256","internalType":"uint256"}],"stateMutability":"view"},{"type":"function","name":"getFinalPlayerPosition","inputs":[{"name":"seasonId","type":"uint256","internalType":"uint256"},{"name":"player","type":"address","internalType":"address"}],"outputs":[{"name":"","type":"uint256","internalType":"uint256"}],"stateMutability":"view"},{"type":"function","name":"getNumberRange","inputs":[{"name":"seasonId","type":"uint256","internalType":"uint256"},{"name":"player","type":"address","internalType":"address"}],"outputs":[{"name":"startRange","type":"uint256","internalType":"uint256"},{"name":"endRange","type":"uint256","internalType":"uint256"}],"stateMutability":"view"},{"type":"function","name":"getParticipantNumberRange","inputs":[{"name":"seasonId","type":"uint256","internalType":"uint256"},{"name":"participant","type":"address","internalType":"address"}],"outputs":[{"name":"start","type":"uint256","internalType":"uint256"},{"name":"end","type":"uint256","internalType":"uint256"}],"stateMutability":"view"},{"type":"function","name":"getParticipantPosition","inputs":[{"name":"seasonId","type":"uint256","internalType":"uint256"},{"name":"participant","type":"address","internalType":"address"}],"outputs":[{"name":"position","type":"tuple","internalType":"struct RaffleStorage.ParticipantPosition","components":[{"name":"ticketCount","type":"uint256","internalType":"uint256"},{"name":"entryBlock","type":"uint256","internalType":"uint256"},{"name":"lastUpdateBlock","type":"uint256","internalType":"uint256"},{"name":"isActive","type":"bool","internalType":"bool"}]}],"stateMutability":"view"},{"type":"function","name":"getParticipants","inputs":[{"name":"seasonId","type":"uint256","internalType":"uint256"}],"outputs":[{"name":"","type":"address[]","internalType":"address[]"}],"stateMutability":"view"},{"type":"function","name":"getPlayerList","inputs":[{"name":"seasonId","type":"uint256","internalType":"uint256"}],"outputs":[{"name":"","type":"address[]","internalType":"address[]"}],"stateMutability":"view"},{"type":"function","name":"getRoleAdmin","inputs":[{"name":"role","type":"bytes32","internalType":"bytes32"}],"outputs":[{"name":"","type":"bytes32","internalType":"bytes32"}],"stateMutability":"view"},{"type":"function","name":"getSeasonDetails","inputs":[{"name":"seasonId","type":"uint256","internalType":"uint256"}],"outputs":[{"name":"config","type":"tuple","internalType":"struct RaffleTypes.SeasonConfig","components":[{"name":"name","type":"string","internalType":"string"},{"name":"startTime","type":"uint256","internalType":"uint256"},{"name":"endTime","type":"uint256","internalType":"uint256"},{"name":"winnerCount","type":"uint16","internalType":"uint16"},{"name":"grandPrizeBps","type":"uint16","internalType":"uint16"},{"name":"treasuryAddress","type":"address","internalType":"address"},{"name":"raffleToken","type":"address","internalType":"address"},{"name":"bondingCurve","type":"address","internalType":"address"},{"name":"sponsor","type":"address","internalType":"address"},{"name":"isActive","type":"bool","internalType":"bool"},{"name":"isCompleted","type":"bool","internalType":"bool"},{"name":"gated","type":"bool","internalType":"bool"}]},{"name":"status","type":"uint8","internalType":"enum RaffleStorage.SeasonStatus"},{"name":"totalParticipants","type":"uint256","internalType":"uint256"},{"name":"totalTickets","type":"uint256","internalType":"uint256"},{"name":"totalPrizePool","type":"uint256","internalType":"uint256"}],"stateMutability":"view"},{"type":"function","name":"getSeasonSnapshot","inputs":[{"name":"seasonId","type":"uint256","internalType":"uint256"}],"outputs":[{"name":"","type":"bytes32","internalType":"bytes32"}],"stateMutability":"view"},{"type":"function","name":"getSeasonWinner","inputs":[{"name":"seasonId","type":"uint256","internalType":"uint256"}],"outputs":[{"name":"","type":"address","internalType":"address"}],"stateMutability":"view"},{"type":"function","name":"getTotalTickets","inputs":[{"name":"seasonId","type":"uint256","internalType":"uint256"}],"outputs":[{"name":"","type":"uint256","internalType":"uint256"}],"stateMutability":"view"},{"type":"function","name":"getVrfRequestForSeason","inputs":[{"name":"seasonId","type":"uint256","internalType":"uint256"}],"outputs":[{"name":"","type":"uint256","internalType":"uint256"}],"stateMutability":"view"},{"type":"function","name":"getWinners","inputs":[{"name":"seasonId","type":"uint256","internalType":"uint256"}],"outputs":[{"name":"","type":"address[]","internalType":"address[]"}],"stateMutability":"view"},{"type":"function","name":"grantRole","inputs":[{"name":"role","type":"bytes32","internalType":"bytes32"},{"name":"account","type":"address","internalType":"address"}],"outputs":[],"stateMutability":"nonpayable"},{"type":"function","name":"hasRole","inputs":[{"name":"role","type":"bytes32","internalType":"bytes32"},{"name":"account","type":"address","internalType":"address"}],"outputs":[{"name":"","type":"bool","internalType":"bool"}],"stateMutability":"view"},{"type":"function","name":"hatsProtocol","inputs":[],"outputs":[{"name":"","type":"address","internalType":"contract IHats"}],"stateMutability":"view"},{"type":"function","name":"isSeasonActive","inputs":[{"name":"seasonId","type":"uint256","internalType":"uint256"}],"outputs":[{"name":"","type":"bool","internalType":"bool"}],"stateMutability":"view"},{"type":"function","name":"owner","inputs":[],"outputs":[{"name":"","type":"address","internalType":"address"}],"stateMutability":"view"},{"type":"function","name":"pauseSeason","inputs":[{"name":"seasonId","type":"uint256","internalType":"uint256"}],"outputs":[],"stateMutability":"nonpayable"},{"type":"function","name":"prizeDistributor","inputs":[],"outputs":[{"name":"","type":"address","internalType":"address"}],"stateMutability":"view"},{"type":"function","name":"rawFulfillRandomWords","inputs":[{"name":"requestId","type":"uint256","internalType":"uint256"},{"name":"randomWords","type":"uint256[]","internalType":"uint256[]"}],"outputs":[],"stateMutability":"nonpayable"},{"type":"function","name":"recordParticipant","inputs":[{"name":"seasonId","type":"uint256","internalType":"uint256"},{"name":"participant","type":"address","internalType":"address"},{"name":"ticketAmount","type":"uint256","internalType":"uint256"}],"outputs":[],"stateMutability":"nonpayable"},{"type":"function","name":"removeParticipant","inputs":[{"name":"seasonId","type":"uint256","internalType":"uint256"},{"name":"participant","type":"address","internalType":"address"},{"name":"ticketAmount","type":"uint256","internalType":"uint256"}],"outputs":[],"stateMutability":"nonpayable"},{"type":"function","name":"renounceRole","inputs":[{"name":"role","type":"bytes32","internalType":"bytes32"},{"name":"callerConfirmation","type":"address","internalType":"address"}],"outputs":[],"stateMutability":"nonpayable"},{"type":"function","name":"requestSeasonEnd","inputs":[{"name":"seasonId","type":"uint256","internalType":"uint256"}],"outputs":[],"stateMutability":"nonpayable"},{"type":"function","name":"requestSeasonEndEarly","inputs":[{"name":"seasonId","type":"uint256","internalType":"uint256"}],"outputs":[],"stateMutability":"nonpayable"},{"type":"function","name":"revokeRole","inputs":[{"name":"role","type":"bytes32","internalType":"bytes32"},{"name":"account","type":"address","internalType":"address"}],"outputs":[],"stateMutability":"nonpayable"},{"type":"function","name":"s_vrfCoordinator","inputs":[],"outputs":[{"name":"","type":"address","internalType":"contract IVRFCoordinatorV2Plus"}],"stateMutability":"view"},{"type":"function","name":"seasonFactory","inputs":[],"outputs":[{"name":"","type":"address","internalType":"contract ISeasonFactory"}],"stateMutability":"view"},{"type":"function","name":"seasonStates","inputs":[{"name":"","type":"uint256","internalType":"uint256"}],"outputs":[{"name":"status","type":"uint8","internalType":"enum RaffleStorage.SeasonStatus"},{"name":"totalParticipants","type":"uint256","internalType":"uint256"},{"name":"totalTickets","type":"uint256","internalType":"uint256"},{"name":"totalPrizePool","type":"uint256","internalType":"uint256"},{"name":"vrfRequestId","type":"uint256","internalType":"uint256"},{"name":"vrfRequestTimestamp","type":"uint256","internalType":"uint256"},{"name":"lockSnapshot","type":"bytes32","internalType":"bytes32"}],"stateMutability":"view"},{"type":"function","name":"seasons","inputs":[{"name":"","type":"uint256","internalType":"uint256"}],"outputs":[{"name":"name","type":"string","internalType":"string"},{"name":"startTime","type":"uint256","internalType":"uint256"},{"name":"endTime","type":"uint256","internalType":"uint256"},{"name":"winnerCount","type":"uint16","internalType":"uint16"},{"name":"grandPrizeBps","type":"uint16","internalType":"uint16"},{"name":"treasuryAddress","type":"address","internalType":"address"},{"name":"raffleToken","type":"address","internalType":"address"},{"name":"bondingCurve","type":"address","internalType":"address"},{"name":"sponsor","type":"address","internalType":"address"},{"name":"isActive","type":"bool","internalType":"bool"},{"name":"isCompleted","type":"bool","internalType":"bool"},{"name":"gated","type":"bool","internalType":"bool"}],"stateMutability":"view"},{"type":"function","name":"setCoordinator","inputs":[{"name":"_vrfCoordinator","type":"address","internalType":"address"}],"outputs":[],"stateMutability":"nonpayable"},{"type":"function","name":"setDefaultGrandPrizeBps","inputs":[{"name":"bps","type":"uint16","internalType":"uint16"}],"outputs":[],"stateMutability":"nonpayable"},{"type":"function","name":"setGatingContract","inputs":[{"name":"_gatingContract","type":"address","internalType":"address"}],"outputs":[],"stateMutability":"nonpayable"},{"type":"function","name":"setHatsProtocol","inputs":[{"name":"_hatsProtocol","type":"address","internalType":"address"}],"outputs":[],"stateMutability":"nonpayable"},{"type":"function","name":"setPrizeDistributor","inputs":[{"name":"distributor","type":"address","internalType":"address"}],"outputs":[],"stateMutability":"nonpayable"},{"type":"function","name":"setSeasonFactory","inputs":[{"name":"_seasonFactoryAddress","type":"address","internalType":"address"}],"outputs":[],"stateMutability":"nonpayable"},{"type":"function","name":"setSponsorHat","inputs":[{"name":"_hatId","type":"uint256","internalType":"uint256"}],"outputs":[],"stateMutability":"nonpayable"},{"type":"function","name":"setVRFCoordinator","inputs":[{"name":"_vrfCoordinator","type":"address","internalType":"address"}],"outputs":[],"stateMutability":"nonpayable"},{"type":"function","name":"setupPrizeDistributionManually","inputs":[{"name":"seasonId","type":"uint256","internalType":"uint256"}],"outputs":[],"stateMutability":"view"},{"type":"function","name":"sofToken","inputs":[],"outputs":[{"name":"","type":"address","internalType":"contract IERC20"}],"stateMutability":"view"},{"type":"function","name":"sponsorHatId","inputs":[],"outputs":[{"name":"","type":"uint256","internalType":"uint256"}],"stateMutability":"view"},{"type":"function","name":"startSeason","inputs":[{"name":"seasonId","type":"uint256","internalType":"uint256"}],"outputs":[],"stateMutability":"nonpayable"},{"type":"function","name":"supportsInterface","inputs":[{"name":"interfaceId","type":"bytes4","internalType":"bytes4"}],"outputs":[{"name":"","type":"bool","internalType":"bool"}],"stateMutability":"view"},{"type":"function","name":"transferOwnership","inputs":[{"name":"to","type":"address","internalType":"address"}],"outputs":[],"stateMutability":"nonpayable"},{"type":"function","name":"updateVRFConfig","inputs":[{"name":"_subscriptionId","type":"uint64","internalType":"uint64"},{"name":"_keyHash","type":"bytes32","internalType":"bytes32"},{"name":"_callbackGasLimit","type":"uint32","internalType":"uint32"}],"outputs":[],"stateMutability":"nonpayable"},{"type":"function","name":"vrfCallbackGasLimit","inputs":[],"outputs":[{"name":"","type":"uint32","internalType":"uint32"}],"stateMutability":"view"},{"type":"function","name":"vrfKeyHash","inputs":[],"outputs":[{"name":"","type":"bytes32","internalType":"bytes32"}],"stateMutability":"view"},{"type":"function","name":"vrfRequestToSeason","inputs":[{"name":"","type":"uint256","internalType":"uint256"}],"outputs":[{"name":"","type":"uint256","internalType":"uint256"}],"stateMutability":"view"},{"type":"function","name":"vrfSubscriptionId","inputs":[],"outputs":[{"name":"","type":"uint256","internalType":"uint256"}],"stateMutability":"view"},{"type":"event","name":"AutoFinalizeAttempted","inputs":[{"name":"seasonId","type":"uint256","indexed":true,"internalType":"uint256"},{"name":"success","type":"bool","indexed":false,"internalType":"bool"}],"anonymous":false},{"type":"event","name":"AutoFinalizeFailed","inputs":[{"name":"seasonId","type":"uint256","indexed":true,"internalType":"uint256"},{"name":"reason","type":"string","indexed":false,"internalType":"string"}],"anonymous":false},{"type":"event","name":"AutoFinalizeFailedLowLevel","inputs":[{"name":"seasonId","type":"uint256","indexed":true,"internalType":"uint256"},{"name":"data","type":"bytes","indexed":false,"internalType":"bytes"}],"anonymous":false},{"type":"event","name":"CoordinatorSet","inputs":[{"name":"vrfCoordinator","type":"address","indexed":false,"internalType":"address"}],"anonymous":false},{"type":"event","name":"GatingContractUpdated","inputs":[{"name":"oldContract","type":"address","indexed":true,"internalType":"address"},{"name":"newContract","type":"address","indexed":true,"internalType":"address"}],"anonymous":false},{"type":"event","name":"HatsProtocolUpdated","inputs":[{"name":"oldAddress","type":"address","indexed":true,"internalType":"address"},{"name":"newAddress","type":"address","indexed":true,"internalType":"address"}],"anonymous":false},{"type":"event","name":"OwnershipTransferRequested","inputs":[{"name":"from","type":"address","indexed":true,"internalType":"address"},{"name":"to","type":"address","indexed":true,"internalType":"address"}],"anonymous":false},{"type":"event","name":"OwnershipTransferred","inputs":[{"name":"from","type":"address","indexed":true,"internalType":"address"},{"name":"to","type":"address","indexed":true,"internalType":"address"}],"anonymous":false},{"type":"event","name":"ParticipantAdded","inputs":[{"name":"seasonId","type":"uint256","indexed":true,"internalType":"uint256"},{"name":"participant","type":"address","indexed":false,"internalType":"address"},{"name":"tickets","type":"uint256","indexed":false,"internalType":"uint256"},{"name":"totalTickets","type":"uint256","indexed":false,"internalType":"uint256"}],"anonymous":false},{"type":"event","name":"ParticipantRemoved","inputs":[{"name":"seasonId","type":"uint256","indexed":true,"internalType":"uint256"},{"name":"participant","type":"address","indexed":false,"internalType":"address"},{"name":"totalTickets","type":"uint256","indexed":false,"internalType":"uint256"}],"anonymous":false},{"type":"event","name":"ParticipantUpdated","inputs":[{"name":"seasonId","type":"uint256","indexed":true,"internalType":"uint256"},{"name":"participant","type":"address","indexed":false,"internalType":"address"},{"name":"newTickets","type":"uint256","indexed":false,"internalType":"uint256"},{"name":"totalTickets","type":"uint256","indexed":false,"internalType":"uint256"}],"anonymous":false},{"type":"event","name":"PositionUpdate","inputs":[{"name":"seasonId","type":"uint256","indexed":true,"internalType":"uint256"},{"name":"player","type":"address","indexed":true,"internalType":"address"},{"name":"oldTickets","type":"uint256","indexed":false,"internalType":"uint256"},{"name":"newTickets","type":"uint256","indexed":false,"internalType":"uint256"},{"name":"totalTickets","type":"uint256","indexed":false,"internalType":"uint256"}],"anonymous":false},{"type":"event","name":"PrizeDistributionFailed","inputs":[{"name":"seasonId","type":"uint256","indexed":true,"internalType":"uint256"},{"name":"reason","type":"string","indexed":false,"internalType":"string"}],"anonymous":false},{"type":"event","name":"PrizeDistributionSetup","inputs":[{"name":"seasonId","type":"uint256","indexed":true,"internalType":"uint256"},{"name":"merkleDistributor","type":"address","indexed":false,"internalType":"address"}],"anonymous":false},{"type":"event","name":"RoleAdminChanged","inputs":[{"name":"role","type":"bytes32","indexed":true,"internalType":"bytes32"},{"name":"previousAdminRole","type":"bytes32","indexed":true,"internalType":"bytes32"},{"name":"newAdminRole","type":"bytes32","indexed":true,"internalType":"bytes32"}],"anonymous":false},{"type":"event","name":"RoleGranted","inputs":[{"name":"role","type":"bytes32","indexed":true,"internalType":"bytes32"},{"name":"account","type":"address","indexed":true,"internalType":"address"},{"name":"sender","type":"address","indexed":true,"internalType":"address"}],"anonymous":false},{"type":"event","name":"RoleRevoked","inputs":[{"name":"role","type":"bytes32","indexed":true,"internalType":"bytes32"},{"name":"account","type":"address","indexed":true,"internalType":"address"},{"name":"sender","type":"address","indexed":true,"internalType":"address"}],"anonymous":false},{"type":"event","name":"SeasonCancelled","inputs":[{"name":"seasonId","type":"uint256","indexed":true,"internalType":"uint256"}],"anonymous":false},{"type":"event","name":"SeasonCompleted","inputs":[{"name":"seasonId","type":"uint256","indexed":true,"internalType":"uint256"}],"anonymous":false},{"type":"event","name":"SeasonCreated","inputs":[{"name":"seasonId","type":"uint256","indexed":true,"internalType":"uint256"},{"name":"name","type":"string","indexed":false,"internalType":"string"},{"name":"startTime","type":"uint256","indexed":false,"internalType":"uint256"},{"name":"endTime","type":"uint256","indexed":false,"internalType":"uint256"},{"name":"raffleToken","type":"address","indexed":false,"internalType":"address"},{"name":"bondingCurve","type":"address","indexed":false,"internalType":"address"}],"anonymous":false},{"type":"event","name":"SeasonEndRequested","inputs":[{"name":"seasonId","type":"uint256","indexed":true,"internalType":"uint256"},{"name":"vrfRequestId","type":"uint256","indexed":false,"internalType":"uint256"}],"anonymous":false},{"type":"event","name":"SeasonLocked","inputs":[{"name":"seasonId","type":"uint256","indexed":true,"internalType":"uint256"}],"anonymous":false},{"type":"event","name":"SeasonSnapshotted","inputs":[{"name":"seasonId","type":"uint256","indexed":true,"internalType":"uint256"},{"name":"snapshotHash","type":"bytes32","indexed":false,"internalType":"bytes32"}],"anonymous":false},{"type":"event","name":"SeasonStarted","inputs":[{"name":"seasonId","type":"uint256","indexed":true,"internalType":"uint256"}],"anonymous":false},{"type":"event","name":"SponsorHatUpdated","inputs":[{"name":"oldHatId","type":"uint256","indexed":true,"internalType":"uint256"},{"name":"newHatId","type":"uint256","indexed":true,"internalType":"uint256"}],"anonymous":false},{"type":"event","name":"VRFFulfilled","inputs":[{"name":"seasonId","type":"uint256","indexed":true,"internalType":"uint256"},{"name":"requestId","type":"uint256","indexed":true,"internalType":"uint256"}],"anonymous":false},{"type":"event","name":"WinnersSelected","inputs":[{"name":"seasonId","type":"uint256","indexed":true,"internalType":"uint256"},{"name":"winners","type":"address[]","indexed":false,"internalType":"address[]"}],"anonymous":false},{"type":"error","name":"AccessControlBadConfirmation","inputs":[]},{"type":"error","name":"AccessControlUnauthorizedAccount","inputs":[{"name":"account","type":"address","internalType":"address"},{"name":"neededRole","type":"bytes32","internalType":"bytes32"}]},{"type":"error","name":"DistributorNotSet","inputs":[]},{"type":"error","name":"FactoryNotSet","inputs":[]},{"type":"error","name":"InvalidAddress","inputs":[]},{"type":"error","name":"InvalidBasisPoints","inputs":[{"name":"bps","type":"uint256","internalType":"uint256"}]},{"type":"error","name":"InvalidBondSteps","inputs":[]},{"type":"error","name":"InvalidEndTime","inputs":[{"name":"endTime","type":"uint256","internalType":"uint256"},{"name":"startTime","type":"uint256","internalType":"uint256"}]},{"type":"error","name":"InvalidSeasonName","inputs":[]},{"type":"error","name":"InvalidSeasonStatus","inputs":[{"name":"seasonId","type":"uint256","internalType":"uint256"},{"name":"currentStatus","type":"uint8","internalType":"uint8"},{"name":"expectedStatus","type":"uint8","internalType":"uint8"}]},{"type":"error","name":"InvalidStartTime","inputs":[{"name":"startTime","type":"uint256","internalType":"uint256"},{"name":"currentTime","type":"uint256","internalType":"uint256"}]},{"type":"error","name":"InvalidTreasuryAddress","inputs":[]},{"type":"error","name":"InvalidWinnerCount","inputs":[{"name":"count","type":"uint256","internalType":"uint256"}]},{"type":"error","name":"NoVRFWords","inputs":[{"name":"seasonId","type":"uint256","internalType":"uint256"}]},{"type":"error","name":"NoWinnersSelected","inputs":[]},{"type":"error","name":"OnlyCoordinatorCanFulfill","inputs":[{"name":"have","type":"address","internalType":"address"},{"name":"want","type":"address","internalType":"address"}]},{"type":"error","name":"OnlyOwnerOrCoordinator","inputs":[{"name":"have","type":"address","internalType":"address"},{"name":"owner","type":"address","internalType":"address"},{"name":"coordinator","type":"address","internalType":"address"}]},{"type":"error","name":"ReentrancyGuardReentrantCall","inputs":[]},{"type":"error","name":"SeasonAlreadyEnded","inputs":[{"name":"seasonId","type":"uint256","internalType":"uint256"}]},{"type":"error","name":"SeasonAlreadyStarted","inputs":[{"name":"seasonId","type":"uint256","internalType":"uint256"}]},{"type":"error","name":"SeasonNotActive","inputs":[{"name":"seasonId","type":"uint256","internalType":"uint256"}]},{"type":"error","name":"SeasonNotEnded","inputs":[{"name":"seasonId","type":"uint256","internalType":"uint256"},{"name":"currentTime","type":"uint256","internalType":"uint256"},{"name":"endTime","type":"uint256","internalType":"uint256"}]},{"type":"error","name":"SeasonNotFound","inputs":[{"name":"seasonId","type":"uint256","internalType":"uint256"}]},{"type":"error","name":"SeasonNotVRFPending","inputs":[{"name":"seasonId","type":"uint256","internalType":"uint256"}]},{"type":"error","name":"TierConfigFailed","inputs":[]},{"type":"error","name":"UnauthorizedCaller","inputs":[]},{"type":"error","name":"UserNotVerified","inputs":[{"name":"seasonId","type":"uint256","internalType":"uint256"},{"name":"user","type":"address","internalType":"address"}]},{"type":"error","name":"VRFRequestNotFound","inputs":[{"name":"requestId","type":"uint256","internalType":"uint256"}]},{"type":"error","name":"VRFTimeoutNotReached","inputs":[{"name":"seasonId","type":"uint256","internalType":"uint256"},{"name":"requestTime","type":"uint256","internalType":"uint256"},{"name":"timeoutAt","type":"uint256","internalType":"uint256"}]},{"type":"error","name":"ZeroAddress","inputs":[]}],"bytecode":{"object":"0x60a03461019257601f61554138819003918201601f19168301916001600160401b038311848410176101965780849260809460405283398101031261019257610047816101aa565b90610054602082016101aa565b9160606040830151920151926001600655331561014d57600780546001600160a01b031916331790556001600160a01b031690811561013e57600980546001600160a01b03191683179055600d805463ffffffff19166207a120179055600e805461ffff60a01b191661065960a21b1790556001600160a01b0316801561012f57608052600a80546001600160a01b031916919091179055600c55600b556100fb336101be565b5061010533610234565b5061010f336102c7565b50604051615166908161035b82396080518181816105390152613d550152f35b63e6c4247b60e01b5f5260045ffd5b63d92e233d60e01b5f5260045ffd5b60405162461bcd60e51b815260206004820152601860248201527f43616e6e6f7420736574206f776e657220746f207a65726f00000000000000006044820152606490fd5b5f80fd5b634e487b7160e01b5f52604160045260245ffd5b51906001600160a01b038216820361019257565b6001600160a01b0381165f9081525f5160206155215f395f51905f52602052604090205460ff1661022f576001600160a01b03165f8181525f5160206155215f395f51905f5260205260408120805460ff191660011790553391905f5160206154c15f395f51905f528180a4600190565b505f90565b6001600160a01b0381165f9081525f5160206154e15f395f51905f52602052604090205460ff1661022f576001600160a01b03165f8181525f5160206154e15f395f51905f5260205260408120805460ff191660011790553391907f7ef5114529a47294f95f6beb0f3b094a1365fd784c97c498bb697c0f0c7b6611905f5160206154c15f395f51905f529080a4600190565b6001600160a01b0381165f9081525f5160206155015f395f51905f52602052604090205460ff1661022f576001600160a01b03165f8181525f5160206155015f395f51905f5260205260408120805460ff191660011790553391907fbf233dd2aafeb4d50879c4aa5c81e96d92f6e6945c906a58f9f2d1c1631b4b26905f5160206154c15f395f51905f529080a460019056fe60806040526004361015610011575f80fd5b5f3560e01c806301ffc9a71461047f578063041d443e1461047a57806305274b021461047557806306f6fc13146104705780630da6f7a11461046b5780631677d4681461046657806317077a3b14610461578063189062871461045c57806319424e51146104575780631a9e6d5c146104525780631c30c76b1461044d5780631e27580e146104485780631fe543e314610443578063200ad21b1461037157806320df43591461043e5780632467442914610439578063248a9ca31461043457806326182e7b1461042f578063274435cc1461042a57806327c02f5a146104255780632f2ff15d1461042057806332847b471461041b57806333e0256614610416578063354443a01461041157806336568abe1461040c5780633aa4159e146104075780633b7ed734146104025780633e81d1ca146103fd57806341f1e982146103f857806344ff81ce146103f357806348144bc6146103ee5780634d861354146103e9578063593d03a0146103e45780635b9180d5146103df5780636044f7e2146103da5780636667bf43146103d55780636b1426a4146103d0578063703dbfe4146103cb578063740a901f146103c657806376ec73c2146103c15780637793d7dd146103bc57806379ba5097146103b75780638d12036c146103b25780638da5cb5b146103ad5780638df48e66146103a85780638ea98117146103a357806391d148541461039e57806398f0e3e9146103995780639cfea253146103945780639eccacf61461038f578063a217fddf1461038a578063ac5729b414610385578063b71d162714610380578063b924c1401461037b578063c049098f14610376578063c1e3bd3e14610371578063cd1c41ea1461036c578063d00d23e314610367578063d072791314610362578063d1248d271461035d578063d3b30b7514610358578063d547741f14610353578063d6769d421461034e578063dc29338214610349578063e59eee3814610344578063ed647d211461033f578063ef4bf3541461033a578063f1412d9414610335578063f2fde38b14610330578063f4d1c5f61461032b5763f5d709a114610326575f80fd5b612dee565b612c72565b612b6c565b612a9d565b612a80565b612a63565b612970565b612954565b6128ff565b612889565b61286f565b612847565b6127a5565b61277d565b6126d1565b610af3565b6126a9565b612627565b6125fd565b61252e565b612514565b6124ec565b6124c8565b61248e565b61243c565b6123ba565b612360565b612338565b6120cb565b61200c565b611fdc565b611f74565b611f07565b611d56565b611cb9565b611c12565b611bdd565b611b93565b611b6b565b611a54565b61173c565b6116dd565b6116b0565b6112bc565b611299565b611243565b6111fb565b6111c1565b611050565b611028565b610fe2565b610fb1565b610ee9565b610c31565b610bdb565b610b6e565b610b34565b610a44565b610a29565b610967565b6107d0565b6107b5565b610788565b61065e565b610604565b610581565b610524565b610500565b6104e3565b346104d55760203660031901126104d55760043563ffffffff60e01b81168091036104d557602090637965db0b60e01b81149081156104c4575b506040519015158152f35b6301ffc9a760e01b1490505f6104b9565b5f80fd5b5f9103126104d557565b346104d5575f3660031901126104d5576020600b54604051908152f35b346104d5575f3660031901126104d557602061ffff600e5460a01c16604051908152f35b346104d5575f3660031901126104d5576040517f00000000000000000000000000000000000000000000000000000000000000006001600160a01b03168152602090f35b61ffff8116036104d557565b359061057f82610568565b565b346104d55760203660031901126104d55760043561059e81610568565b6105a6613732565b61ffff811661271081116105d65750600e805461ffff60a01b191660a09290921b61ffff60a01b16919091179055005b630cbf8cb160e11b5f5260045260245ffd5b6001600160a01b038116036104d557565b359061057f826105e8565b346104d55760203660031901126104d557600435610621816105e8565b610629613732565b6001600160a01b0316801561064f576001600160601b0360a01b600e541617600e555f80f35b63e6c4247b60e01b5f5260045ffd5b346104d55760403660031901126104d55760243560043561067e826105e8565b5f90805f526002602052610697600960405f2001612ea0565b5f936001600160a01b038116939192915b835186101561073057846001600160a01b036106d46106c78988612f17565b516001600160a01b031690565b16146107305761072860019161072161071c60086106fa885f52600260205260405f2090565b016107086106c78c8b612f17565b60018060a01b03165f5260205260405f2090565b612f2b565b5190612f99565b9501946106a8565b945061077093506107699250600861075361071c935f52600260205260405f2090565b019060018060a01b03165f5260205260405f2090565b5182612f99565b604080519283526020830191909152819081015b0390f35b346104d55760203660031901126104d5576004355f5260026020526020600260405f200154604051908152f35b346104d5575f3660031901126104d5576020604051600a8152f35b346104d55760203660031901126104d5576004356107ec613732565b601054816010557fc607a59719d9758af0d6f8498fd6fdddf5882209e612592a040d3b902c6439355f80a3005b805180835260209291819084018484015e5f828201840152601f01601f1916010190565b90610903906101608061085b85516101808552610180850190610819565b9460208101516020850152604081015160408501526108856060820151606086019061ffff169052565b60808181015161ffff169085015260a0818101516001600160a01b03169085015260c0818101516001600160a01b03169085015260e0818101516001600160a01b031690850152610100818101516001600160a01b031690850152610120818101511515908501526101408181015115159085015201511515910152565b90565b6007111561091057565b634e487b7160e01b5f52602160045260245ffd5b9060078210156109105752565b91959493909261095961094e60809560a0865260a086019061083d565b976020850190610924565b604083015260608201520152565b346104d55760203660031901126104d5576004355f61016060405161098b81611778565b606081528260208201528260408201528260608201528260808201528260a08201528260c08201528260e082015282610100820152826101208201528261014082015201526109fc6109ed6109e8835f52600160205260405f2090565b612fa6565b915f52600260205260405f2090565b90610784610a0b835460ff1690565b92600181015490600360028201549101549160405195869586610931565b346104d5575f3660031901126104d557602060405160038152f35b346104d55760403660031901126104d5576024356004356001600160401b0382116104d557366023830112156104d5578160040135906001600160401b0382116104d5573660248360051b850101116104d5576024610aa493019061309d565b005b90602080835192838152019201905f5b818110610ac35750505090565b82516001600160a01b0316845260209384019390920191600101610ab6565b906020610903928181520190610aa6565b346104d55760203660031901126104d5576004355f526002602052610784610b20600960405f2001612ea0565b604051918291602083526020830190610aa6565b346104d5575f3660031901126104d55760206040517fbf233dd2aafeb4d50879c4aa5c81e96d92f6e6945c906a58f9f2d1c1631b4b268152f35b346104d55760203660031901126104d557600435610b8b816105e8565b610b93613732565b600f80546001600160a01b039283166001600160a01b0319821681179092559091167fac543b986a69515bb21836de22f6210c6b869b42ea3a82bc841f939f1bddfbf95f80a3005b346104d55760203660031901126104d5576020610c066004355f526005602052600160405f20015490565b604051908152f35b60609060031901126104d55760043590602435610c2a816105e8565b9060443590565b346104d557610c3f36610c0e565b9190610c49613781565b610c73610c6e6006610c63855f52600160205260405f2090565b015460a01c60ff1690565b6130d7565b610c956006610c8a845f52600160205260405f2090565b015460b01c60ff1690565b80610ed5575b610e19575b5f5160206151465f395f51905f5290610cc1835f52600260205260405f2090565b6001600160a01b0382165f9081526008820160205260409020805495909291610dc891610cee8189612f99565b94876002840193610d00848654612f99565b80946003850192610d19610d15855460ff1690565b1590565b15610dcd577fa579cf708fd91d80ae65ceb4a89d65267d82874519078a79355d57bc0ab6e24d93600182610d538d6009610d73960161316a565b01610d5e815461318d565b9055436001880155600160ff19825416179055565b604080516001600160a01b038b1681526020810192909252810191909152606090a25b85815560024391015581555460405193849360018060a01b031697846040919493926060820195825260208201520152565b0390a3005b5050604080516001600160a01b038a168152602081018b90529081018690527f82c0d288888ec0f9d844bf34a4d4182dbf7fbf6c4c86a0552f66ee572b69e7ae925060609150a2610d96565b600454610e3c90610e30906001600160a01b031681565b6001600160a01b031690565b604051630d1bab4760e11b8152600481018490526001600160a01b038316602482015290602090829060449082905afa908115610ed0575f91610ea1575b50610ca0576307a50dcf60e01b5f526004919091526001600160a01b031660245260445b5ffd5b610ec3915060203d602011610ec9575b610ebb81836117ea565b810190613123565b5f610e7a565b503d610eb1565b613138565b506004546001600160a01b03161515610c9b565b346104d55760203660031901126104d557600435610f05613ae6565b80158015610fa7575b610f9557805f52600260205260405f20610f29815460ff1690565b610f3281610906565b60048103610f6857506007015415610f5757610f4d90613bca565b610aa46001600655565b626deb4b60e21b5f5260045260245ffd5b8083610f76610e9e93610906565b6350b8b89160e11b5f52600490815260ff909116602452604452606490565b630c5687c760e21b5f5260045260245ffd5b505f548111610f0e565b346104d55760203660031901126104d5576020610fd8600435610fd3816105e8565b61319b565b6040519015158152f35b346104d55760403660031901126104d557610aa4602435600435611005826105e8565b61102361101e825f526005602052600160405f20015490565b6138ce565b614066565b346104d5575f3660031901126104d5576004546040516001600160a01b039091168152602090f35b346104d55760203660031901126104d55760043561106c6137f0565b611074613ae6565b801580156111b7575b6111a557611093815f52600260205260405f2090565b60036110a0825460ff1690565b6110a981610906565b036111915760068101546110bc81612f76565b908142106111775750506110f1610e30610e3060056110e3865f52600160205260405f2090565b01546001600160a01b031690565b90813b156104d5575f8092600460405180958193632d03357160e01b83525af1918215610ed05761112f9261115d575b50805460ff19166006179055565b7fe1d2cc1e7c15ae3434766608243e38e53f1167f94a58aa2dace166116065c4a15f80a2610aa46001600655565b8061116b5f611171936117ea565b806104d9565b5f611121565b631376fef560e01b5f52600484905260245260445260645ffd5b6315cedfe560e21b5f52600482905260245ffd5b630c5687c760e21b5f5260045260245ffd5b505f54811161107d565b346104d5575f3660031901126104d55760206040517fc5e2433d0a3c75ef5e37c4e28ccd84092c7dcdc38a7fff2e2a116ad41013a6568152f35b346104d55760403660031901126104d55760043560243561121b816105e8565b336001600160a01b0382160361123457610aa4916140f6565b63334bd91960e11b5f5260045ffd5b346104d55760203660031901126104d55760043561125f6137f0565b8015158061128e575b611271906132f6565b5f908152600160205260409020600601805460ff60a01b19169055005b505f54811115611268565b346104d5575f3660031901126104d557602063ffffffff600d5416604051908152f35b346104d55760203660031901126104d5576004356112d861385f565b801580156116a6575b6111a5576112ff610d156006610c63845f52600160205260405f2090565b611694576002611317825f52600160205260405f2090565b0154421061165e57600161133d611336835f52600260205260405f2090565b5460ff1690565b61134681610906565b0361161e57611368610e30610e3060056110e3855f52600160205260405f2090565b803b156104d55760405163086afa1160e41b8152905f8260048183855af1908115610ed05760049260209261160a575b50604051632168e9d360e21b815292839182905afa908115610ed0575f916115eb575b5060036113d0835f52600260205260405f2090565b01556113f760066113e9835f52600160205260405f2090565b01805460ff60a01b19169055565b61141961140c825f52600260205260405f2090565b805460ff19166002179055565b807fb8c1e571c612bf9e6c3c5d23593965ef3c951a26fcd26afc16e9397bef1329515f80a2611447816141fe565b600a545f9060209061150a90611465906001600160a01b0316610e30565b600b54600c546114e961ffff611480600d5463ffffffff1690565b6114db6114a3600361149a8d5f52600160205260405f2090565b015461ffff1690565b916114b76114af61180b565b8c81526142e7565b956114c061181a565b9788528a8801526003604088015263ffffffff166060870152565b1663ffffffff166080840152565b60a0820152604051948580948193634d8e1c2f60e11b835260048301613345565b03925af1908115610ed0577f656e5c80604277a61c82dbec54c99e9c266e8e019c6c1367d5b82e773fd395c7916115b7915f916115bc575b50806005611558865f52600260205260405f2090565b015542600661156f865f52600260205260405f2090565b0155611593611586855f52600260205260405f2090565b805460ff19166003179055565b836115a6825f52600360205260405f2090565b556040519081529081906020820190565b0390a2005b6115de915060203d6020116115e4575b6115d681836117ea565b810190613336565b5f611542565b503d6115cc565b611604915060203d6020116115e4576115d681836117ea565b5f6113bb565b8061116b5f611618936117ea565b5f611398565b80611637611336610e9e935f52600260205260405f2090565b9061164182610906565b6350b8b89160e11b5f5260045260ff166024526001604452606490565b806002611676610e9e935f52600160205260405f2090565b01546325bcf8af60e11b5f5260049190915242602452604452606490565b632feb032560e01b5f5260045260245ffd5b505f5481116112e1565b346104d55760203660031901126104d5576004355f5260026020526020600a60405f200154604051908152f35b346104d55760203660031901126104d5576004356116fa816105e8565b611702613732565b6001600160a01b0316801561064f57806001600160601b0360a01b600a541617600a556001600160601b0360a01b60095416176009555f80f35b346104d5575f3660031901126104d557600a546040516001600160a01b039091168152602090f35b634e487b7160e01b5f52604160045260245ffd5b61018081019081106001600160401b0382111761179457604052565b611764565b604081019081106001600160401b0382111761179457604052565b602081019081106001600160401b0382111761179457604052565b608081019081106001600160401b0382111761179457604052565b90601f801991011681019081106001600160401b0382111761179457604052565b6040519061057f6020836117ea565b6040519061057f60c0836117ea565b6040519061057f610180836117ea565b6001600160401b03811161179457601f01601f191660200190565b81601f820112156104d55780359061186b82611839565b9261187960405194856117ea565b828452602083830101116104d557815f926020809301838601378301015290565b801515036104d557565b359061057f8261189a565b919091610180818403126104d5576118c5611829565b928135916001600160401b0383116104d5576118e961016092611993948301611854565b8552602081013560208601526040810135604086015261190b60608201610574565b606086015261191c60808201610574565b608086015261192d60a082016105f9565b60a086015261193e60c082016105f9565b60c086015261194f60e082016105f9565b60e086015261196161010082016105f9565b61010086015261197461012082016118a4565b61012086015261198761014082016118a4565b610140860152016118a4565b610160830152565b6001600160401b0381116117945760051b60200190565b35906001600160801b03821682036104d557565b81601f820112156104d5578035906119dd8261199b565b926119eb60405194856117ea565b82845260208085019360061b830101918183116104d557602001925b828410611a15575050505090565b6040848303126104d55760206040918251611a2f81611799565b611a38876119b2565b8152611a458388016119b2565b83820152815201930192611a07565b346104d55760a03660031901126104d5576004356001600160401b0381116104d557611a849036906004016118af565b6024356001600160401b0381116104d557611aa39036906004016119c6565b604435611aaf81610568565b60643591611abc83610568565b608435936001600160401b0385116104d557366023860112156104d5578460040135611ae78161199b565b95611af560405197886117ea565b8187526024602088019260051b820101903682116104d557602401915b818310611b3957610784611b29898989898961339f565b6040519081529081906020820190565b6020833603126104d55760208091604051611b53816117b4565b8535611b5e81610568565b8152815201920191611b12565b346104d55760403660031901126104d557610770602435600435611b8e826105e8565b6133d7565b346104d55760203660031901126104d55760043580151580611bd2575b611bb9906132f6565b5f5260026020526020600560405f200154604051908152f35b505f54811115611bb0565b346104d55760203660031901126104d5576004355f526001602052602060ff600660405f20015460a01c166040519015158152f35b346104d55760203660031901126104d557600435611c2e613732565b600e546001600160a01b031690611c468215156134a6565b611c6f610e306003611c60845f52600260205260405f2090565b0154936001600160a01b031690565b91823b156104d557604051633570298360e01b815260048101929092526024820152905f908290604490829084905af18015610ed057611cab57005b8061116b5f610aa4936117ea565b346104d55760203660031901126104d557600435805f52600260205260ff60405f205416600781101561091057600503611d1957611d0d6004611d07610784935f52600260205260405f2090565b01612ea0565b60405191829182610ae2565b60405162461bcd60e51b8152602060048201526015602482015274149859999b194e881b9bdd0818dbdb5c1b195d1959605a1b6044820152606490fd5b346104d55760203660031901126104d557600435611d76610d153361319b565b611ef85780158015611eee575b6111a557611d9e6006610c63835f52600160205260405f2090565b611edc576001611db6825f52600160205260405f2090565b01544210611ec4576002611dd2825f52600160205260405f2090565b0154421015611eb257611df0611336825f52600260205260405f2090565b611df981610906565b611e7057611e286006611e14835f52600160205260405f2090565b01805460ff60a01b1916600160a01b179055565b611e4a611e3d825f52600260205260405f2090565b805460ff19166001179055565b7fe2046d333900871694b2fb421975b907ac5d93052201a0e259fa0664d9dbdf1d5f80a2005b80611e89611336610e9e935f52600260205260405f2090565b90611e9382610906565b6350b8b89160e11b5f52919060ff90606493600452166024525f604452565b631bc7556760e11b5f5260045260245ffd5b806001611676610e9e935f52600160205260405f2090565b633488e62760e01b5f5260045260245ffd5b505f548111611d83565b635c427cd960e01b5f5260045ffd5b346104d55760203660031901126104d557600435611f24816105e8565b611f2c613732565b600480546001600160a01b039283166001600160a01b0319821681179092559091167ff33acd086c73d69e04f2e4229686ba85c89c0b969231ada8f6fbecd20f6c5e335f80a3005b346104d55760203660031901126104d557600435611f906137f0565b80158015611fd2575b6111a557611fb7610d156006610c63845f52600160205260405f2090565b61169457600161133d611336835f52600260205260405f2090565b505f548111611f99565b346104d55760203660031901126104d5576020611ffa6004356134f2565b6040516001600160a01b039091168152f35b346104d5575f3660031901126104d5576008546001600160a01b0316330361208d576007546001600160a01b0316600780546001600160a01b03191633179055600880546001600160a01b031916905533906001600160a01b03167f8be0079c531659141344cd1fd0a4f28419497f9722a3daafe3b4186f6b6457e05f80a3005b60405162461bcd60e51b815260206004820152601660248201527526bab9ba10313290383937b837b9b2b21037bbb732b960511b6044820152606490fd5b346104d5576120d936610c0e565b916120e2613781565b6120f96006610c63835f52600160205260405f2090565b801561230c575b612109906130d7565b61211b815f52600260205260405f2090565b6001600160a01b0383165f90815260088201602052604090209092600382019461214e612149875460ff1690565b613535565b82549561215d82881015613576565b61216782886133ca565b93612177600288019384546133ca565b928186859355600243910155558315612206575b50604080516001600160a01b0384168152602081018390529495505f5160206151465f395f51905f5294610dc8929187917fac77b6b0b2feb4466fddc617dfa38c6ef3c26332af501f28b86a706a0b6ec2eb9190a260405193849360018060a01b031697846040919493926060820195825260208201520152565b805460ff191690556001850161221c81546135b5565b90556001600160a01b038216946009015f5b8154808210156122ef578761225d6122468486613155565b90546001600160a01b039260039290921b1c821690565b161461226c575060010161222e565b5f5160206151465f395f51905f52969750916122e16122e6926122bd6122b66122a161229b610dc899986133bc565b86613155565b905460039190911b1c6001600160a01b031690565b9184613155565b81546001600160a01b0393841660039290921b91821b9390911b1916919091179055565b6135c1565b9085945061218b565b5050505f5160206151465f395f51905f52939450610dc8906122e6565b506121096006612327611336845f52600260205260405f2090565b61233081610906565b149050612100565b346104d5575f3660031901126104d5576007546040516001600160a01b039091168152602090f35b346104d55760603660031901126104d5576004356001600160401b0381168091036104d5576024356044359163ffffffff83168093036104d5576123a2613732565b600c55600b5563ffffffff19600d541617600d555f80f35b346104d55760203660031901126104d5576004356123d7816105e8565b6007546001600160a01b0316903382141580612427575b6123fb57610aa490613601565b5060095463061db9c160e01b5f908152336004526001600160a01b039283166024529116604452606490fd5b506009546001600160a01b03163314156123ee565b346104d55760403660031901126104d557602060ff612482602435600435612463826105e8565b5f526005845260405f209060018060a01b03165f5260205260405f2090565b54166040519015158152f35b346104d5575f3660031901126104d55760206040517f7ef5114529a47294f95f6beb0f3b094a1365fd784c97c498bb697c0f0c7b66118152f35b346104d55760203660031901126104d557600435303303611ef857610aa490613bca565b346104d5575f3660031901126104d5576009546040516001600160a01b039091168152602090f35b346104d5575f3660031901126104d55760206040515f8152f35b346104d55760803660031901126104d5576004356001600160401b0381116104d55761255e9036906004016118af565b6024356001600160401b0381116104d55761257d9036906004016119c6565b60443561258981610568565b6064359161259683610568565b61259e613ae6565b6040519360206125ae81876117ea565b5f808752805b8181106125e0576107846125cb89898989896146b3565b60016006556040519081529081906020820190565b82906040516125ee816117b4565b5f815282828b010152016125b4565b346104d55760203660031901126104d5576004355f526003602052602060405f2054604051908152f35b346104d55760203660031901126104d557600435612644816105e8565b61264c613732565b600d5490602082901c6001600160a01b031661269a576001600160a01b0316801561064f57640100000000600160c01b031990911660209190911b640100000000600160c01b031617600d55005b6329f7dfeb60e21b5f5260045ffd5b346104d5575f3660031901126104d557600f546040516001600160a01b039091168152602090f35b346104d55760403660031901126104d5576024356004356126f1826105e8565b805f52600160205260ff600660405f20015460a81c161561273857610784916008610753612727935f52600260205260405f2090565b546040519081529081906020820190565b60405162461bcd60e51b815260206004820152601c60248201527f526166666c653a20736561736f6e206e6f7420636f6d706c65746564000000006044820152606490fd5b346104d5575f3660031901126104d557600e546040516001600160a01b039091168152602090f35b346104d55760203660031901126104d5576004356127c1613732565b8015158061283c575b6127d3906132f6565b5f52600260205260ff60405f20541660078110156109105760046127f79114613664565b60405162461bcd60e51b815260206004820152601a60248201527f526166666c653a207573652066696e616c697a65536561736f6e0000000000006044820152606490fd5b505f548111156127ca565b346104d5575f3660031901126104d557600d54604051602091821c6001600160a01b03168152f35b346104d5575f3660031901126104d5576020610c066136b0565b346104d55760403660031901126104d557610aa46024356004356128ac826105e8565b6128c561101e825f526005602052600160405f20015490565b6140f6565b93909796959260c095926128e28660e081019b610924565b602086015260408501526060840152608083015260a08201520152565b346104d55760203660031901126104d5576004355f52600260205260405f2060ff8154166107846001830154926002810154906003810154600582015490600a600684015493015493604051978897886128ca565b346104d5575f3660031901126104d55760205f54604051908152f35b346104d55760203660031901126104d55760043561298c613732565b80151580612a58575b61299e906132f6565b805f5260026020526129c2600460ff60405f2054166129bc81610906565b14613664565b612a266129d7825f52600260205260405f2090565b600481015415801590612a4c575b6129ee906136e6565b612a196006612a05855f52600160205260405f2090565b01805460ff60a81b1916600160a81b179055565b805460ff19166005179055565b7fc48a6bc3c0c009e1f8ccd8bca8aeee55410aaf210eec6e5e0cba85a3708bfb2b5f80a2005b506001810154156129e5565b505f54811115612995565b346104d5575f3660031901126104d5576020600c54604051908152f35b346104d5575f3660031901126104d5576020601054604051908152f35b346104d55760403660031901126104d557610784612b06602435600435612ac3826105e8565b5f6060604051612ad2816117cf565b82815282602082015282604082015201525f526002602052600860405f20019060018060a01b03165f5260205260405f2090565b60ff600360405192612b17846117cf565b8054845260018101546020850152600281015460408501520154161515606082015260405191829182919091606080608083019480518452602081015160208501526040810151604085015201511515910152565b346104d55760203660031901126104d557600435612b89816105e8565b600754906001600160a01b0382163303612c34576001600160a01b031690338214612bef57600880546001600160a01b031916831790556001600160a01b03167fed8889f560326eb138920d842192f0eb3dd22b4f139c87a2c57538e05bae12785f80a3005b60405162461bcd60e51b815260206004820152601760248201527f43616e6e6f74207472616e7366657220746f2073656c660000000000000000006044820152606490fd5b60405162461bcd60e51b815260206004820152601660248201527527b7363c9031b0b63630b1363290313c9037bbb732b960511b6044820152606490fd5b346104d5575f3660031901126104d55760206040516202a3008152f35b90600182811c92168015612cbd575b6020831014612ca957565b634e487b7160e01b5f52602260045260245ffd5b91607f1691612c9e565b9060405191825f825492612cda84612c8f565b8084529360018116908115612d435750600114612cff575b5061057f925003836117ea565b90505f9291925260205f20905f915b818310612d2757505090602061057f928201015f612cf2565b6020919350806001915483858901015201910190918492612d0e565b90506020925061057f94915060ff191682840152151560051b8201015f612cf2565b99979593919c9b9a98969492906101808b526101808b01612d8591610819565b60208b019d909d5260408a015261ffff90811660608a01521660808801526001600160a01b0390811660a088015290811660c08701521660e08501526001600160a01b0316610100840152151561012083015215156101408201526101600161057f9115159052565b346104d55760203660031901126104d5576004355f52600160205260405f20612e1681612cc7565b90610784600182015460028301549260038101549160018060a01b036004830154166006612e4d600585015460018060a01b031690565b930154926001600160a01b0384169160a085901c60ff1693612e7a60a887901c60ff169660b01c60ff1690565b966040519a8b9a60018060a01b038360201c169361ffff808560101c169416928d612d65565b90604051918281549182825260208201905f5260205f20925f5b818110612ecf57505061057f925003836117ea565b84546001600160a01b0316835260019485019487945060209093019201612eba565b634e487b7160e01b5f52603260045260245ffd5b805115612f125760200190565b612ef1565b8051821015612f125760209160051b010190565b90604051612f38816117cf565b606060ff600383958054855260018101546020860152600281015460408601520154161515910152565b634e487b7160e01b5f52601160045260245ffd5b906202a3008201809211612f8657565b612f62565b9060018201809211612f8657565b91908201809211612f8657565b9061057f6130936006612fb7611829565b94612fc181612cc7565b865260018101546020870152600281015460408701526130286130186003830154612ffb612ff08261ffff1690565b61ffff1660608b0152565b61ffff601082901c1660808a015260201c6001600160a01b031690565b6001600160a01b031660a0880152565b60048101546001600160a01b031660c087015260058101546001600160a01b031660e087015201546001600160a01b03811661010086015261307560a082901c60ff161515610120870152565b61308a60a882901c60ff161515610140870152565b60b01c60ff1690565b1515610160840152565b6009546001600160a01b031693929190338590036130c05761057f939450613996565b8463073e64fd60e21b5f523360045260245260445ffd5b156130de57565b60405162461bcd60e51b815260206004820152601760248201527f526166666c653a20736561736f6e20696e6163746976650000000000000000006044820152606490fd5b908160209103126104d557516109038161189a565b6040513d5f823e3d90fd5b805415612f12575f5260205f20905f90565b8054821015612f12575f5260205f2001905f90565b90815491600160401b83101561179457826122bd91600161057f95018155613155565b5f198114612f865760010190565b6001600160a01b0381165f9081527fd56ce40da2f8e4ce89407c5b8f94ad55d87937ba4f5ffc9301e2771bef9f0d03602052604090206131da90611336565b6132f057600f546131f3906001600160a01b0316610e30565b6001600160a01b0381161515806132e5575b61320f5750505f90565b6010546040516321a9204d60e11b81526001600160a01b03841660048201526024810182905291602083604481845afa928315610ed0575f936132c4575b508261325b575b5050905090565b604051631528609b60e21b81526001600160a01b03949094166004850152602484019190915260209150829060449082905afa908115610ed0575f916132a5575b50805f80613254565b6132be915060203d602011610ec957610ebb81836117ea565b5f61329c565b6132de91935060203d602011610ec957610ebb81836117ea565b915f61324d565b506010541515613205565b50600190565b156132fd57565b60405162461bcd60e51b81526020600482015260116024820152702930b33336329d1037379039b2b0b9b7b760791b6044820152606490fd5b908160209103126104d5575190565b60e060a06109039360208452805160208501526020810151604085015261ffff604082015116606085015263ffffffff606082015116608085015263ffffffff6080820151168285015201519160c0808201520190610819565b906133b4949392916133af613ae6565b6146b3565b906001600655565b5f19810191908211612f8657565b91908203918211612f8657565b6133e9905f52600260205260405f2090565b6008810191613418610d15600361341084879060018060a01b03165f5260205260405f2090565b015460ff1690565b61349d5760019291929160095f94018054935b84861061343e575050505050505f905f90565b61344b6122a18784613155565b6001600160a01b039081165f8181526020869052604090209186161461348157600191613479915490612f99565b95019461342b565b925095945050610903925061349891505484612f99565b6133bc565b5050505f905f90565b156134ad57565b60405162461bcd60e51b815260206004820152601b60248201527f526166666c653a206469737472696275746f72206e6f742073657400000000006044820152606490fd5b805f526002602052600460405f20015461350b57505f90565b5f526002602052600460405f2001805415612f12575f90815260209020546001600160a01b031690565b1561353c57565b60405162461bcd60e51b8152602060048201526012602482015271526166666c653a206e6f742061637469766560701b6044820152606490fd5b1561357d57565b60405162461bcd60e51b815260206004820152601060248201526f0a4c2ccccd8ca7440e8dede40daeac6d60831b6044820152606490fd5b8015612f86575f190190565b805480156135ed575f1901906135d78282613155565b81549060018060a01b039060031b1b1916905555565b634e487b7160e01b5f52603160045260245ffd5b6001600160a01b03168015613651576020817fd1a6a14209a385a964d036e404cb5cfb71f4000cdb03c9366292430787261be6926001600160601b0360a01b6009541617600955604051908152a1565b63d92e233d60e01b5f5260045ffd5b9055565b1561366b57565b60405162461bcd60e51b815260206004820152601860248201527f526166666c653a206e6f7420646973747269627574696e6700000000000000006044820152606490fd5b5f54805b6136bd57505f90565b805f52600160205260ff600660405f20015460a01c16610903576136e0906135b5565b806136b4565b156136ed57565b60405162461bcd60e51b815260206004820152601e60248201527f526166666c653a207072697a6573206e6f7420646973747269627574656400006044820152606490fd5b335f9081527f05b8ccbb9d4d8fb16ea74ce3c29a41f1b461fbdaff4714a0d9a8eb05499746bc602052604090205460ff161561376a57565b63e2517d3f60e01b5f52336004525f60245260445ffd5b335f9081527f3194543997e30ee1cba2eab5e1e091ac29a86efc163cf6c9547387b11178f833602052604090205460ff16156137b957565b63e2517d3f60e01b5f52336004527fc5e2433d0a3c75ef5e37c4e28ccd84092c7dcdc38a7fff2e2a116ad41013a65660245260445ffd5b335f9081527ffbc93671eda18a3103415c6de11b46be272fd03129c33970fab0bfd26d35c8a0602052604090205460ff161561382857565b63e2517d3f60e01b5f52336004527fbf233dd2aafeb4d50879c4aa5c81e96d92f6e6945c906a58f9f2d1c1631b4b2660245260445ffd5b335f9081527fd56ce40da2f8e4ce89407c5b8f94ad55d87937ba4f5ffc9301e2771bef9f0d03602052604090205460ff161561389757565b63e2517d3f60e01b5f52336004527f7ef5114529a47294f95f6beb0f3b094a1365fd784c97c498bb697c0f0c7b661160245260445ffd5b5f81815260056020908152604080832033845290915290205460ff16156138f25750565b63e2517d3f60e01b5f523360045260245260445ffd5b81810292918115918404141715612f8657565b818110613926575050565b5f815560010161391b565b80545f82558061393f575050565b61057f915f5260205f209081019061391b565b9190811015612f125760051b0190565b8054600160401b8110156117945761397f91600182018155613155565b819291549060031b91821b915f19901b1916179055565b9291926139ab815f52600360205260405f2090565b54918215613ad25760066139ca611336855f52600260205260405f2090565b6139d381610906565b14613acb5760036139ef611336855f52600260205260405f2090565b6139f881610906565b03613a8b57613a0f835f52600260205260405f2090565b946007860190613a1e82613931565b5f5b818110613a6d5750505050613a40613a6a9394600460ff19825416179055565b817f41c9b09716a74f8a100ce1159febf82ab674e27ff67c16f4fed74d6fc1c628695f80a3614aa1565b50565b80613a85613a7e6001938588613952565b3585613962565b01613a20565b610e9e83613aa4611336825f52600260205260405f2090565b90613aae82610906565b6350b8b89160e11b5f5260045260ff166024526003604452606490565b5050509050565b631417ac4f60e21b5f52600482905260245ffd5b600260065414613af7576002600655565b633ee5aeb560e01b5f5260045ffd5b90604051918281549182825260208201905f5260205f20925f5b818110613b3557505061057f925003836117ea565b8454835260019485019487945060209093019201613b20565b8151916001600160401b03831161179457600160401b8311611794576020908254848455808510613baf575b5001905f5260205f205f5b838110613b925750505050565b82516001600160a01b031681830155602090920191600101613b85565b613bc490845f5285845f20918201910161391b565b5f613b7a565b613bdc815f52600260205260405f2090565b613bee825f52600160205260405f2090565b9060038101546003830190613c1b613c08835461ffff1690565b613c1460078601613b06565b9085614c08565b91613c298360048601613b4e565b857f5fa006001f7473b386c7bb4db093cb973ce5c895e51c3813bdbd723097d0349e60405180613c598782610ae2565b0390a2600e546001600160a01b031615613f7e57600184018054158015613f75575b8015613f6d575b613f495754905460101c61ffff1661ffff8116613f445750600e5460a01c61ffff165b61ffff8116906127108211613f2e5750613cc2613cca9184613908565b612710900490565b90613cd582846133ca565b9060018114613f23575b845115613f1c57613cf26106c786612f05565b925b6001600160a01b03841615613f0d5760058801546001600160a01b031693841561064f57600e54613d2f90610e30906001600160a01b031681565b90813b156104d557604051633d1a5f4560e11b8152600481018c90526001600160a01b037f0000000000000000000000000000000000000000000000000000000000000000811660248301529190911660448201526064810192909252608482019390935260a4810191909152905f90829060c490829084905af18015610ed057613ef9575b50600e546001600160a01b031690803b156104d557604051633c420b8960e01b81526001600160a01b03929092166004830152602482018390525f908290604490829084905af18015610ed057613ee5575b50600e54613e1f90610e30906001600160a01b031681565b803b156104d557604051633570298360e01b81526004810187905260248101929092525f908290604490829084905af1938415610ed057612a05612a1993600693613e7097613ed1575b5087614f27565b600e546040516001600160a01b03909116815281907f42ffdc40c5f007722e9a55cd5189a3970d893c660e7f064530bf5e7d3d3d061190602090a27fc48a6bc3c0c009e1f8ccd8bca8aeee55410aaf210eec6e5e0cba85a3708bfb2b5f80a2565b8061116b5f613edf936117ea565b5f613e69565b8061116b5f613ef3936117ea565b5f613e07565b8061116b5f613f07936117ea565b5f613db5565b63992667eb60e01b5f5260045ffd5b5f92613cf4565b8392505f9150613cdf565b630cbf8cb160e11b5f5261ffff1660045260245ffd5b613ca5565b50505050600691909101805460ff60a81b1916600160a81b179055613e7090612a19565b508215613c82565b50835115613c7b565b6312df801960e01b5f5260045ffd5b6001600160a01b0381165f9081527f3194543997e30ee1cba2eab5e1e091ac29a86efc163cf6c9547387b11178f833602052604090205460ff16614061576001600160a01b0381165f9081527f3194543997e30ee1cba2eab5e1e091ac29a86efc163cf6c9547387b11178f83360205260409020805460ff1916600117905533906001600160a01b03167fc5e2433d0a3c75ef5e37c4e28ccd84092c7dcdc38a7fff2e2a116ad41013a6567f2f8788117e7eff1d82e926ec794901d17c78024a50270940304540a733656f0d5f80a4600190565b505f90565b5f8181526005602090815260408083206001600160a01b038616845290915290205460ff166140f0575f8181526005602090815260408083206001600160a01b03861684529091529020805460ff1916600117905533916001600160a01b0316907f2f8788117e7eff1d82e926ec794901d17c78024a50270940304540a733656f0d5f80a4600190565b50505f90565b5f8181526005602090815260408083206001600160a01b038616845290915290205460ff16156140f0575f8181526005602090815260408083206001600160a01b03861684529091529020805460ff1916905533916001600160a01b0316907ff6391f5c32d9c69d2a47ea670b442974b53935d1edc7fd64eb21e047a839171b5f80a4600190565b906141888261199b565b61419560405191826117ea565b82815280926141a6601f199161199b565b0190602036910137565b906141c390604083526040830190610aa6565b906020818303910152602080835192838152019201905f5b8181106141e85750505090565b82518452602093840193909201916001016141db565b90614211825f52600260205260405f2090565b9061421e60098301612ea0565b614228815161417e565b915f9460088501955b8351811015614278578061426661424d6106c760019488612f17565b6001600160a01b03165f90815260208a90526040902090565b546142718288612f17565b5201614231565b5093600a9195506142e2926142bc6142ca7f933c4129170e8c30428bb1e2cbd6b6b75a44cc93e1ea265eae7cc9c23919c07e966040519283916020830195866141b0565b03601f1981018352826117ea565b51902091018190556040519081529081906020820190565b0390a2565b6040519063125fa26760e31b60208301525115156024820152602481526109036044826117ea565b9061ffff8091169116019061ffff8211612f8657565b91908260409103126104d5576020825161433e816105e8565b920151610903816105e8565b92916143679196959496845260a0602085015260a084019061083d565b8281036040840152602080835192838152019201905f5b8181106143a45750505061ffff909416606082015261057f91906080019061ffff169052565b825180516001600160801b03908116865260209182015116818601526040909401939092019160010161437e565b9190601f81116143e157505050565b61057f925f5260205f20906020601f840160051c8301931061440b575b601f0160051c019061391b565b90915081906143fe565b91909182516001600160401b0381116117945761443c816144368454612c8f565b846143d2565b6020601f82116001146144775781906136609394955f9261446c575b50508160011b915f199060031b1c19161790565b015190505f80614458565b601f1982169061448a845f5260205f2090565b915f5b8181106144c4575095836001959697106144ac575b505050811b019055565b01515f1960f88460031b161c191690555f80806144a2565b9192602060018192868b01518155019401920161448d565b9061465b610160600661057f946144f4855182614415565b602085015160018201556040850151600282015561458c60038201614533614521606089015161ffff1690565b825461ffff191661ffff909116178255565b61455f614545608089015161ffff1690565b825463ffff0000191660109190911b63ffff000016178255565b60a08701518154640100000000600160c01b03191660209190911b640100000000600160c01b0316179055565b60c08501516004820180546001600160a01b0319166001600160a01b0390921691909117905560e08501516005820180546001600160a01b0319166001600160a01b03909216919091179055610100850151910180546001600160a01b0319166001600160a01b039092169190911781559261462961460f610120830151151590565b855460ff60a01b191690151560a01b60ff60a01b16178555565b61465461463a610140830151151590565b855460ff60a81b191690151560a81b60ff60a81b16178555565b0151151590565b815460ff60b01b191690151560b01b60ff60b01b16179055565b9390926146906080949796939760a0875260a0870190610819565b602086019790975260408501526001600160a01b03908116606085015216910152565b91909294936146c4610d153361319b565b611ef857600d546001600160a01b03906146e29060201c8216610e30565b161561269a57825151156149c55760208301908151428111156149af5750604084019283518351908181111561499a575050608085015161ffff166127108111613f2e575060a085015161473e906001600160a01b0316610e30565b1561498b5785511561497c578151614926575b6060850161ffff614764825161ffff1690565b1615614912575161ffff16600a81116148fc575060406147845f5461318d565b96875f558799875f8a6147c56147a8610e30600d5460018060a01b039060201c1690565b94875198899788968795635e2d40eb60e01b87526004870161434a565b03925af1908115610ed0577f6ccf5008c3cde5e448bfdbb6a25201ac5552f0207195efaa353b8ccc20ec105e956142e2935f925f946148c5575b506001600160a01b03831660c08301526001600160a01b03841660e0830152336101008301525f6101208301525f61014083015261484e826148498b5f52600160205260405f2090565b6144dc565b61486d6148638a5f52600260205260405f2090565b805460ff19169055565b61487684613f8d565b5080511515806148a8575b614898575b50519351945160405195869586614675565b6148a2908961505d565b5f614886565b50600e546148be906001600160a01b0316610e30565b1515614881565b9093506148eb91925060403d6040116148f5575b6148e381836117ea565b810190614325565b919091925f6147ff565b503d6148d9565b639530143560e01b5f5261ffff1660045260245ffd5b639530143560e01b5f90815260045260245ffd5b95925f97949195925f985b87518a10156149645761495c60019161495661494d8d8c612f17565b515161ffff1690565b9061430f565b990198614931565b61ffff16606084015294975092959194909391614751565b632ff1761160e21b5f5260045ffd5b63cfe2ea6360e01b5f5260045ffd5b63f880c23960e01b5f5260045260245260445ffd5b6364bb3b8360e11b5f526004524260245260445ffd5b63575514a960e11b5f5260045ffd5b5f9060033d116149e057565b905060045f803e5f5160e01c90565b5f60443d10610903576040513d600319016004823e8051913d60248401116001600160401b03841117614a5b57828201928351916001600160401b038311614a53573d84016003190185840160200111614a535750610903929101602001906117ea565b949350505050565b92915050565b906020610903928181520190610819565b3d15614a9c573d90614a8382611839565b91614a9160405193846117ea565b82523d5f602084013e565b606090565b303b156104d557604051639cfea25360e01b8152600481018290525f8160248183305af19081614b99575b50614b6757614ad96149d4565b6308c379a014614b23575b7ff9431bad44a1ee2788f4a43142150f552534b92dcdf087874c182d19b0792b5f614b1c614b10614a72565b60405191829182614a61565b0390a25f90565b614b2b6149ef565b80614b365750614ae4565b614b1c7fb70ad4955334f7f9fa2b6322ff21867a384419c6870275b0a2fe8c511fdfe5039160405191829182614a61565b604051600181527f23b52568e031c9ec6ecacbd69250684ab7d8e76f078ad907633d383c0f54b99490602090a2600190565b8061116b5f614ba7936117ea565b5f614acc565b60405190614bbc6020836117ea565b5f808352366020840137565b60408051909190614bd983826117ea565b6001815291601f1901366020840137565b8115614bf4570690565b634e487b7160e01b5f52601260045260245ffd5b91909160028101549081158015614e67575b8015614e5b575b614e4f57600981019283549460018614614e2957614c3e8661417e565b925f805b888210614ddd5750505061ffff1685811115614dd7575084925b614c658461417e565b95614c6f8161417e565b5f965f5b878110614ccd575050505050505050614c8b8161417e565b915f5b828110614c9b5750505090565b80614cc7614cae6106c760019486612f17565b614cb88388612f17565b6001600160a01b039091169052565b01614c8e565b614ce1614cdb875183614bea565b87612f17565b515f865f925b6014841115614cfd575b50505050600101614c73565b614d0d614d1892614d1292614bea565b612f8b565b8a6150f2565b8c87821080614dbb575b614d78575050614d319061318d565b614d70614d48614d428a5186614bea565b8a612f17565b516040805160208101928352908101849052614d6781606081016142bc565b5190209261318d565b918790614ce7565b614db193508c925081614cdb614da6926001979f614cb890614da06122a1614dac988d613155565b92612f17565b60019052565b61318d565b98905f8681614cf1565b50614dd2610d15614dcc848a612f17565b51151590565b614d22565b92614c5c565b614e15600191614e0e614df36122a1868d613155565b6001600160a01b03165f908152600887016020526040902090565b5490612f99565b9182614e218289612f17565b520190614c42565b505050509050610903614e466122a1614e40614bc8565b93613143565b614cb883612f05565b50505050610903614bad565b5061ffff841615614c21565b50600981015415614c1a565b6020818303126104d5578051906001600160401b0382116104d5570181601f820112156104d557805190614ea68261199b565b92614eb460405194856117ea565b82845260208085019360051b830101918183116104d557602001925b828410614ede575050505090565b6020848303126104d55760208091604051614ef8816117b4565b8651614f0381610568565b8152815201930192614ed0565b604090610903939281528160208201520190610aa6565b600e5490916001600160a01b0390911690614f4182610e30565b6040516318b8aafd60e21b815260048101859052905f90829060249082905afa908115610ed0575f9161503b575b5051151580615031575b614fd5575b5050600e54614f9790610e30906001600160a01b031681565b803b156104d55760405163b5dbc2f960e01b815260048101929092525f908290602490829084905af1614fc75750565b8061116b5f61057f936117ea565b5f91829182604051614ffd816142bc6020820195632822c9ab60e21b87528a60248401614f10565b51925af1615009614a72565b90156150155780614f7e565b8051908161502c57632b4e3cc160e11b5f5260045ffd5b602001fd5b5080511515614f79565b61505791503d805f833e61504f81836117ea565b810190614e73565b5f614f6f565b6040519160208301916340d9553360e11b8352606484019060248501526040604485015281518091526020608485019201905f5b8181106150d757505050915f92916150b382859403601f1981018452836117ea565b600e5483906001600160a01b03169251925af16150ce614a72565b90156150155750565b82515161ffff16845260209384019390920191600101615091565b905f918051915b8284106151065750505090565b909192838101808211612f865760011c90826151228386612f17565b51101561513e575060018101809111612f8657925b91906150f9565b935061513756fe7efd340bbdce3a2eb491d9d6cbf0c02bacdfbf9656316aa37c8bf0e856c9f8f62f8788117e7eff1d82e926ec794901d17c78024a50270940304540a733656f0dd56ce40da2f8e4ce89407c5b8f94ad55d87937ba4f5ffc9301e2771bef9f0d03fbc93671eda18a3103415c6de11b46be272fd03129c33970fab0bfd26d35c8a005b8ccbb9d4d8fb16ea74ce3c29a41f1b461fbdaff4714a0d9a8eb05499746bc","linkReferences":{}},"methodIdentifiers":{"BONDING_CURVE_ROLE()":"354443a0","DEFAULT_ADMIN_ROLE()":"a217fddf","EMERGENCY_ROLE()":"20df4359","MAX_WINNER_COUNT()":"19424e51","SEASON_CREATOR_ROLE()":"98f0e3e9","VRF_REQUEST_CONFIRMATIONS()":"1e27580e","VRF_TIMEOUT()":"f4d1c5f6","_executeFinalizationExternal(uint256)":"9cfea253","acceptOwnership()":"79ba5097","canCreateSeason(address)":"27c02f5a","cancelStuckSeason(uint256)":"33e02566","completeSeasonManually(uint256)":"e59eee38","createSeason((string,uint256,uint256,uint16,uint16,address,address,address,address,bool,bool,bool),(uint128,uint128)[],uint16,uint16)":"ac5729b4","createSeasonWithTiers((string,uint256,uint256,uint16,uint16,address,address,address,address,bool,bool,bool),(uint128,uint128)[],uint16,uint16,(uint16)[])":"4d861354","currentSeasonId()":"dc293382","defaultGrandPrizeBps()":"05274b02","finalizeSeason(uint256)":"274435cc","fundPrizeDistributor(uint256)":"6667bf43","gatingContract()":"32847b47","getCoordinatorAddress()":"48144bc6","getCurrentSeason()":"d3b30b75","getFinalPlayerPosition(uint256,address)":"cd1c41ea","getNumberRange(uint256,address)":"17077a3b","getParticipantNumberRange(uint256,address)":"593d03a0","getParticipantPosition(uint256,address)":"f1412d94","getParticipants(uint256)":"c1e3bd3e","getPlayerList(uint256)":"200ad21b","getRoleAdmin(bytes32)":"248a9ca3","getSeasonDetails(uint256)":"1c30c76b","getSeasonSnapshot(uint256)":"41f1e982","getSeasonWinner(uint256)":"7793d7dd","getTotalTickets(uint256)":"18906287","getVrfRequestForSeason(uint256)":"5b9180d5","getWinners(uint256)":"6b1426a4","grantRole(bytes32,address)":"2f2ff15d","hasRole(bytes32,address)":"91d14854","hatsProtocol()":"c049098f","isSeasonActive(uint256)":"6044f7e2","owner()":"8da5cb5b","pauseSeason(uint256)":"3aa4159e","prizeDistributor()":"d00d23e3","rawFulfillRandomWords(uint256,uint256[])":"1fe543e3","recordParticipant(uint256,address,uint256)":"26182e7b","removeParticipant(uint256,address,uint256)":"8d12036c","renounceRole(bytes32,address)":"36568abe","requestSeasonEnd(uint256)":"3e81d1ca","requestSeasonEndEarly(uint256)":"76ec73c2","revokeRole(bytes32,address)":"d547741f","s_vrfCoordinator()":"9eccacf6","seasonFactory()":"d1248d27","seasonStates(uint256)":"d6769d42","seasons(uint256)":"f5d709a1","setCoordinator(address)":"8ea98117","setDefaultGrandPrizeBps(uint16)":"0da6f7a1","setGatingContract(address)":"740a901f","setHatsProtocol(address)":"24674429","setPrizeDistributor(address)":"1677d468","setSeasonFactory(address)":"b924c140","setSponsorHat(uint256)":"1a9e6d5c","setVRFCoordinator(address)":"44ff81ce","setupPrizeDistributionManually(uint256)":"d0727913","sofToken()":"06f6fc13","sponsorHatId()":"ef4bf354","startSeason(uint256)":"703dbfe4","supportsInterface(bytes4)":"01ffc9a7","transferOwnership(address)":"f2fde38b","updateVRFConfig(uint64,bytes32,uint32)":"8df48e66","vrfCallbackGasLimit()":"3b7ed734","vrfKeyHash()":"041d443e","vrfRequestToSeason(uint256)":"b71d1627","vrfSubscriptionId()":"ed647d21"},"id":86}